:10000000E0130020FD19000051690000E91900000B
:10001000E9190000E9190000E919000000000000DA
:1000200000000000000000000000000005180000B3
:10003000E919000000000000B1170000CD330000F6
:1000400069170000691700006917000069170000B0
:1000500069170000691700006917000069170000A0
:100060006917000069170000691700006917000090
:100070006917000069170000691700006917000080
:100080006917000069170000691700006917000070
:100090006917000069170000691700006917000060
:1000A0006917000069170000691700006917000050
:1000B0006917000069170000691700006917000040
:1000C0006917000069170000691700006917000030
:1000D0006917000069170000691700006917000020
:1000E0006917000069170000691700006917000010
:1000F0006917000069170000691700006917000000
:1001000053B94AB9002908BF00281CBF4FF0FF317E
:100110004FF0FF3000F06CB9ADF1080C6DE904CE82
:1001200000F006F8DDF804E0DDE9022304B07047D2
:100130002DE9F047089E0D4604468E46002B40F000
:1001400082808A42174646D9B2FA82F24AB1C2F197
:10015000200105FA02F320FA01F1974041EA030E6B
:1001600094404FEA1748230CBEFBF8FCB9B208FBD9
:100170001CEE43EA0E430CFB01F098420AD9FB182F
:100180000CF1FF3580F01681984240F21381ACF1FA
:10019000020C3B441B1AA4B2B3FBF8F008FB10336B
:1001A00044EA034400FB01F1A14209D93C1900F1E2
:1001B000FF3380F00181A14240F2FE8002383C44CE
:1001C000641A40EA0C4000211EB1D4400023C6E965
:1001D0000043BDE8F08702B9FFDEB2FA82F2002ADE
:1001E0004FD1CB1B4FEA174E1FFA87F80121B3FB03
:1001F000FEFC250C0EFB1C3345EA034508FB0CF303
:10020000AB4207D97D190CF1FF3002D2AB4200F2AC
:10021000E7808446ED1AA3B2B5FBFEF00EFB105545
:1002200043EA054408FB00F8A04507D93C1900F152
:10023000FF3302D2A04500F2D7801846A4EB080491
:1002400040EA0C40C0E78B4208D9002E00F0AF8096
:100250000021C6E900050846BDE8F087B3FA83F13E
:1002600000294BD1AB4202D3824200F2B780841AFC
:1002700065EB030301209E46002EAAD0C6E9004E7E
:10028000A7E7C2F1200C01FA02F3974020FA0CF024
:100290004FEA174E21FA0CFC1843BCFBFEF1050C8B
:1002A0000EFB11CC1FFA87F845EA0C4501FB08F359
:1002B000AB4204FA02F409D97D1901F1FF3C80F048
:1002C0008B80AB4240F2888002393D44EB1A85B204
:1002D000B3FBFEF00EFB103345EA034500FB08F3C9
:1002E000AB4207D97D1900F1FF3C71D2AB426FD907
:1002F00002383D44EB1A40EA014178E7C1F1200C95
:100300008B4022FA0CF71F4320FA0CF405FA01F394
:100310004FEA174E25FA0CF51C43230CB5FBFEF9EA
:100320001FFA87F80EFB195543EA054509FB08FA41
:10033000AA4502FA01F200FA01F308D97D1909F180
:10034000FF3047D2AA4545D9A9F102093D44A5EBA2
:100350000A05A4B2B5FBFEF00EFB105544EA0544B5
:1003600000FB08F8A04507D93C1900F1FF352DD254
:10037000A0452BD902383C4440EA0940A4EB0804CC
:10038000A0FB02894C45C6464D4619D316D05EB136
:10039000B3EB0E0264EB050404FA0CFCCA404CEA11
:1003A0000202CC40C6E900240021BDE8F0873146B6
:1003B00030460EE7AC46EDE6184601E74345E6D287
:1003C000B8EB020E69EB07050138E0E72846D3E7F2
:1003D00060468FE78146BAE7614677E708464BE714
:1003E000ACF1020C3D4415E702383C4426E700BF5F
:1003F000704700BF08B506F066FD0146034806F0E9
:1004000086FA034B01221A6008BD00BFD8740000B1
:10041000640200202DE9F04F6F4B0FCB8BB00AAC7C
:1004200004E90F006D4806F072FA6D4806F06FFAA5
:100430006C4803F091FD054628B96B4806F067FA51
:100440000BB0BDE8F08F694806F061FA684803F028
:1004500083FD044608B96748F0E7674806F057FA95
:100460006B68AF681B682E691A050ED46349644A2D
:1004700064484FF43C7306F04AFA634806F047FAC2
:100480005F484FF43C7106F069F9336823F4006368
:1004900033600B213B684FF4887228469847011E51
:1004A00003DA5A4806F033FACAE76B68AE681B688D
:1004B0002F691B050ED45149514A52484FF42473F9
:1004C00006F025FA504806F022FA4D484FF4247100
:1004D00006F044F93B68B66913F4006F4FF00B0166
:1004E00014BF4FF400334FF480234FF4A03228465A
:1004F000B047014608B14648D4E74649464B4B60F1
:100500004FF400638B60AB68DB6913B101222846AE
:1005100098474FF00008414B1B68002BFBD008F1B7
:1005200001083E4A3E48B8F1040F4FF0000308BFEF
:100530004FF0000813600AAB03EB88034FF47A779F
:1005400053F8105C294606F0E2F97D436421B5FBBF
:10055000F1F5A36804AA5B680D2120469847029034
:1005600018B16FF004012F489CE7DDE90463A6FB96
:1005700007AB07FB03BB2C4A0393504600235946A5
:10058000FFF7BEFD294B4FF0FF325B4508BF5245D8
:10059000814602D26FF08501E5E7039B224AA5FB65
:1005A000066705FB0377304600233946FFF7A8FDB1
:1005B0001E4A4FF0FF31BA4208BFB1420346E9D3A9
:1005C000A2680299009115680D214A462046A84765
:1005D000014600289FD0C6E7E0720000ED740000DD
:1005E000F774000022750000297500004A750000AC
:1005F000677500006D7500008E750000D2750000F3
:10060000A8750000107600002D7600003F760000EF
:100610006676000058020020F50300006402002006
:100620009D760000B976000040420F003F420F0067
:100630002DE9F04F91B08B46029092461C46002562
:100640009AF8000008B928465EE325280AF1010758
:1006500007D0029B594698470028C0F255830135C0
:1006600010E2182200210AA806F0ADF99AF801302C
:10067000252B78D0002294461646964610463946D9
:1006800017F8013B2B2B00F09D8000F29480202B6B
:1006900000F09B80232B00F09A8028B19DF8300059
:1006A00040F004008DF83000BEF1000F05D09DF839
:1006B000300040F008008DF830002EB19DF8300079
:1006C00040F010008DF83000BCF1000F05D09DF80F
:1006D000300040F020008DF830002AB19DF8302025
:1006E00042F040028DF830209DF8302002F04400A6
:1006F000442803D16FF386128DF830209DF8302006
:100700002A2B42F080028DF830207BD19DF83120D9
:1007100042F001024B1C8DF831201A782E2A9DF8E8
:1007200031200CBF0121002161F341028DF83120FD
:1007300074D15A782A2A6AD0013300210A26184631
:1007400010F8012BA2F13007092F40F28E809DF89E
:1007500030200E91C2F3400040EAD17161F34102B2
:100760008DF830205AE00AF102078DF833309DF8F9
:100770003130D90740F1498154F8049BB9F1000F99
:1007800007DA9DF8302042F004028DF83020C9F1DC
:1007900000095A0740F1428154F8048BB8F1000F68
:1007A00080F241819DF831306FF341038DF8313093
:1007B0004FF0FF3837E12D2B0CD0302B7FF46DAF8D
:1007C00001225CE74FF0010E59E7012657E74FF091
:1007D000010C54E7012052E70CFB0202303A334689
:1007E0001E4616F8010BA0F13007092FF4D99942E3
:1007F00093D09DF830100D92D20F62F341018DF825
:1008000030108AE70B4600224FF00A0CE8E79DF80B
:10081000312042F004028DF8312002331F4617F8D0
:10082000012B6C2A41D025D8682A2BD06A2A46D0C1
:100830004C2A4CD01F4617F8012B9DF831308DF80B
:100840003320782A00F2D980572A4DD8412A03D084
:10085000453A022A00F2D1809DF83230042262F338
:1008600002038DF8323001239EE006FB012130396E
:10087000034664E7742A26D07A2ADBD19DF831300A
:1008800006220DE05A78682A9DF8312006D1012110
:1008900061F3C6028DF831209F1CCCE7134602227B
:1008A00062F3C6038DF83130C5E75A786C2A9DF89B
:1008B000312001D10421EBE713460322F0E79DF834
:1008C00031300522ECE79DF831300722E8E7BDF82A
:1008D000303023F4F04323F0020343F4804343F029
:1008E0000203ADF83030A6E7A2F15801202900F24A
:1008F000848001A050F821F0BD090000FB09000030
:10090000FB090000FB090000FB090000FB090000D7
:10091000FB090000FB090000FB090000590800006A
:10092000FB090000BD0900007D0900005908000016
:100930005908000059080000FB0900007D0900006B
:10094000FB090000FB090000FB090000FB09000097
:10095000C5090000BD090000E1090000FB09000015
:10096000FB090000E1090000FB090000BD090000CF
:10097000FB090000FB090000BD0900009DF83210D2
:10098000012003F0780360F30201402B8DF8321050
:1009900002BF9DF8301041F001018DF83010632A3C
:1009A00031D1003B18BF01239DF83020C2F3400134
:1009B0000B4363F341028DF83020D8E69DF83210E6
:1009C0000220DEE79DF8322003F07803A3F1400017
:1009D000032161F3020243428DF832204341E3E7F1
:1009E0009DF83220032113F0780F61F302028DF895
:1009F000322014BF01230023D6E79DF8303043F0A6
:100A000001038DF830300023CEE79DF93020002A15
:100A1000B4BFDDF834904FF0FF39BAE69B077FF59D
:100A2000C7AEDDF838809DF831200023CDE90D33C5
:100A30009DF8323003F00703012BC2F3C30236D115
:100A4000D31E042B20D8DFE803F00307071F1F0085
:100A500054F8040BC11704E0073424F00704F4E849
:100A60000201CDE90A019DF8303013F0030654D09D
:100A700002983B465246594605F0C2FE0028C0F295
:100A800043810544BA46DBE554F8040B012A4FEADA
:100A9000E071CDE90A0105D19DF828300A930023C1
:100AA0000B93E0E7022ADED1BDF92800D2E7022B42
:100AB00023D1D31E042B13D8DFE803F0030A0A1254
:100AC000120020680A900021231D0B911C46CAE7E2
:100AD000073424F00703F3E80201CDE90A01F5E742
:100AE00054F8043B0A93012A4FF000030B93D3D030
:100AF000022AB8D1BDF82830D0E7042B07D107343B
:100B000024F00704F4E80201CDE90A01ABE7032B66
:100B100004BF54F8043B0A93A5E79DF833007828F6
:100B2000B0D8622822D825283FF493AD5828A9D1FF
:100B30000DF126030093DDE90A0104AB0CAA05F0D0
:100B400014FE8246B8F1000F0DF126000CDB9DF873
:100B50003020A0EB0A036FF3861298458DF8302001
:100B600002D9A8EB03030D9380463DE063381528B6
:100B700088D801A151F820F0F90B00005D0C0000AD
:100B8000850A0000850A0000850A0000850A000029
:100B90005D0C0000850A0000850A0000850A00003F
:100BA000850A0000BB0C0000890C00008D0C0000C1
:100BB000850A0000850A0000D10B0000850A0000AC
:100BC000890C0000850A0000850A0000890C0000DD
:100BD000B8F1000FDDF828A00ADB4146504605F0C9
:100BE000D2FE0AEB00080026BAF1000F0CD149E74B
:100BF000504605F0C1FEF4E70A9B8DF81030002640
:100C00000DF111080DF1100AA8EB0A0306B101332A
:100C10009DF83220D0066BD5023352060D9948BF9D
:100C20000E9A0B4448BF9B18B9F1000F79DD9DF86F
:100C30003020A9EB0309C2F380030393530770D458
:100C4000500664D546B1029B594630469847002865
:100C50005ADB039B01351E46302359E01E0711D491
:100C600013F0100618BF2026DDE90A23002A73F1CD
:100C70000001BFF65DAF524263EB4303CDE90A23A7
:100C80002D2655E72B26EFE7002651E70A9848B3B3
:100C90000DF1260300930CAA04AB002105F065FDBD
:100CA000BDF8323003F0EF0343F4F04343F0100398
:100CB0008246ADF83230002644E70A9B072A3FF609
:100CC000E1AEDFE802F00D04060D08080D0D1D7001
:100CD000D8E61D80D6E62846E917C3E90001D1E62B
:100CE0001D60CFE6DFF8C4800646A8F1050A8BE751
:100CF000110748BF013390E7184603935946029BFA
:100D000098470028039B04DA11B0BDE8F08F202338
:100D10004D444A46002AA5EB090109F1FF39EBDCF5
:100D20000D4636B1029B5946304698470028EBDB0A
:100D300001359DF83230D90601D41A0706D5029B39
:100D40005946302098470028DEDB01359DF83230C7
:100D5000DB0607D59DF83300029B594698470028CB
:100D6000D2DB01350D9E2E44731B002B16DC02983E
:100D700043465246594605F043FD0028C4DB05446E
:100D8000A944A9EB0503002B7FF77CAE029B5946D3
:100D9000202098470028B7DB0135F2E7029B59462F
:100DA000302098470028AFDB0135DDE7E37600000F
:100DB00038B54468816004F00304032C054602D072
:100DC0002CB1002000E0006800236B6038BD054AAC
:100DD00005490648452305F09AFD0248452105F0DE
:100DE000BDFCEEE7E4760000387F000010760000DE
:100DF000014805F021BB00BFF872000008B5D0B172
:100E00004368042B11D100220368BFF35B8F53E8C2
:100E1000001F012903D143E800200028F7D1BFF3C8
:100E20005B8F074808BF104608BD3BB1006803F060
:100E3000EBFB0020F8E76FF4E040F5E70148F3E74B
:100E4000E98FFFFFEA8FFFFF10B5044618B90D4B7D
:100E50000D485B689847616808290DD031F004039C
:100E60000AD011F0020108D00848214603F068FAC0
:100E7000002323600023636010BD2068142205F066
:100E8000A2FDF7E76000002007770000680200205D
:100E900010B5044618B9164B16485B689847636846
:100EA000042B23D0082B21D0CBB92368BBB912481F
:100EB0004FF0FF324FF0FF33214603F0D5F908B968
:100EC00023681BB90A4B0D485B68984720681422B9
:100ED000002105F078FD636843F002036360206839
:100EE00006F061F8636843F00103636010BD00BF62
:100EF0006000002007770000680200202D770000C6
:100F000008B508B34368042B10D101220368BFF36E
:100F10005B8F53E8001F002903D143E8002000281D
:100F2000F7D1BFF35B8F0BD1002008BD53B1006830
:100F30004FF0FF324FF0FF3303F066FA0028F3D092
:100F40000348F2E70348F0E76FF4E040EDE700BF45
:100F5000E98FFFFFEA8FFFFF08B5064906484023E7
:100F6000142206F004F8BDE808400449044805F0DE
:100F7000C5BA00BF8802002068020020107300007C
:100F8000007300002DE9F04FB0F81C9085B019F007
:100F9000080F0446039222D001290CBF49F0100922
:100FA00049F02009A0F81C901434204604F092FE69
:100FB00068B99F4A9F49A048AC2305F0A8FC9F4808
:100FC000214605F0A4FC9A48AC2105F0C7FB039B21
:100FD00083F31188BFF36F8F05B0BDE8F08F984F92
:100FE000DFF8548209F00709022906D1204605F0EE
:100FF00033FC0028D8D0012868D1D4F818B0A38BCE
:10100000BBF1000F0ADA0026256823F00703C4E9C4
:10101000006643F00103A383019627E003F0070273
:10102000511F012934D8002123F00703062A25681F
:101030009BB2C4E900110CD18D422A4638BF0A4642
:101040002AB1E18B12680131E183002AF8D143F023
:101050000203A383204605F0FFFB06460028DBD0F1
:10106000A38B43F02003A38300230193A38B03F0FE
:1010700007024A45029203D0A268002A40F0F0809D
:101080001DB9019A002A00F036814FF00009E9E00D
:10109000042A0ED123F007039AB2A283204605F05A
:1010A000DBFB054618B142F02002A2830025019522
:1010B000DCE74046634940F21B133A4605F027FC43
:1010C00040F21B11384605F049FBEFE7032835D104
:1010D000B9F1000F0BD05C4940464FF4AB733A4670
:1010E00005F015FC4FF4AB71384605F037FB23686B
:1010F0005BB95649404640F257133A4605F007FCA3
:1011000040F25711384605F029FB23691B6801930B
:101110005BB94F4940464FF4AD733A4605F0F7FBD3
:101120004FF4AD71384605F019FBA38B23F007038C
:1011300043F00603A3830025AB4697E7042832D18A
:10114000B9F1020F0BD04349404640F25D133A46D5
:1011500005F0DDFB40F25D11384605F0FFFAE38B48
:101160005BB13D4940464FF4AF733A4605F0CFFBC3
:101170004FF4AF71384605F0F1FA23695B680193CB
:101180005BB93349404640F261133A4605F0BFFB74
:1011900040F26111384605F0E1FAA38B23F0070312
:1011A00043F00403C6E7052832D1B9F1010F0BD093
:1011B0002A4940464FF4B2733A4605F0A8FB4FF473
:1011C000B271384605F0CAFA23685BB91F49404638
:1011D00040F265133A4605F09AFB40F26511384635
:1011E00005F0BCFA23699B6801935BB91849404636
:1011F0004FF4B4733A4605F08AFB4FF4B4713846A5
:1012000005F0ACFAA38B23F0070343F0050391E745
:101210000C4940F26B133A46404605F078FB002536
:1012200040F26B11384605F099FA019584E700BF4A
:10123000FD77000023780000107600003A78000067
:101240005A770000387F00007C7700008877000024
:10125000AB770000C2770000D8770000E777000086
:101260004FF0010943F0080304F1140AA383504628
:1012700004F030FD68B93A4A3A49AC23404605F0DB
:1012800046FB3948514605F042FB3548AC2105F094
:1012900065FA039B83F31188BFF36F8FB9F1000FD9
:1012A00038D1002D4BD1019B13B1304920469847CE
:1012B0004FF02003EFF3118B83F31288BFF36F8F8E
:1012C0005046CDF80CB004F0F7FC68B9244A284920
:1012D0008123404605F01BFB2648514605F017FBCD
:1012E0001F48812105F03AFA504604F003FDA38B14
:1012F00023F00803A383A38BDA0628D523F0100379
:10130000A3830121B4F81C9009F0070900297FF498
:101310006BAE49E6A1680029C3D00B68029A002B86
:1013200038BF002399464B6820461E465B46B047AF
:10133000B9F1000FB5D0D9F800304946EEE729469B
:10134000029A2D685B46204605F0A2FAA9E713F041
:1013500020011EBF23F02003A3830221D2E700BF98
:10136000FD770000237800003A7800007913000030
:101370004F78000064780000F8B504460D4600F18F
:1013800014064FF02003EFF3118783F31288BFF3A5
:101390006F8F304604F090FC68B90C4A0C490D4838
:1013A000812305F0B4FA0C48314605F0B0FA07483D
:1013B000812105F0D3F9304604F09CFCA5613A4642
:1013C00020460121BDE8F840FFF7DCBDFD770000B5
:1013D0004F78000010760000647800002DE9F04797
:1013E00004460F4605F06AFA051E5EDB04F1140997
:1013F0004FF02003EFF3118A83F31288BFF36F8F4E
:10140000484604F059FC68B9384A394939488123BB
:1014100005F07DFA3848494605F079FA33488121CC
:1014200005F09CF9484604F065FCE38BA28B4FF66F
:10143000FF718B4202F0070650D0022E24D10133F7
:10144000E38335464FF00108484604F043FC68B991
:10145000264A2A492748AC2305F059FA2848494624
:1014600005F055FA2148AC2105F078F98AF3118886
:10147000BFF36F8FB8F1000F17D000233246394603
:10148000204605F005FA10E0930701D0062E0FD193
:1014900000233B606368F3B9C4E900773546FEB9C1
:1014A000524602212046FFF76DFD2846BDE8F08731
:1014B000052E18D0012E0BD012490E48124A40F2C8
:1014C000C91305F024FA104840F2C91105F046F995
:1014D0006FF0040504E01F606760DFE76FF00A0546
:1014E0004FF00008B0E76FF08505F9E7FD770000E1
:1014F0004F78000010760000647800002378000028
:101500003A780000E77700005A770000F8B5054602
:101510004FF02003EFF3118683F31288BFF36F8F30
:101520001E4804F0C9FB68B91D4A1E491E488123A4
:1015300005F0EDF919491D4805F0E9F91848812130
:1015400005F00CF9154804F0D5FB194B1C68002C6C
:1015500038BF00245CB1174FD4E90132002D08BF19
:1015600013460BB1387898472468002CF4D10B4807
:1015700004F0B0FB68B90A4A0F490B48AC2305F0E8
:10158000C6F906490D4805F0C2F90548AC2105F039
:10159000E5F886F31188BFF36F8FF8BD8807002048
:1015A000FD7700004F78000010760000647800009E
:1015B0008C07002094070020237800003A78000070
:1015C0001FB50F4B1A68BAB901221A600D4A07CA33
:1015D00001AB83E807000C4A4AB193E8070005F025
:1015E0000EFA002005B05DF804EBFFF78FBF82F321
:1015F0001188BFF36F8FF4E705B05DF804FB00BFFF
:101600002000002094070020FF690000F0B589B099
:101610006E4601460546304605F072F996E8070029
:101620001F4C84E807002078002837D01D4B00208D
:1016300018606B1C1DD091420CD21B491B4A1C48E0
:10164000CA2305F064F91B4805F061F91748CA215F
:1016500005F084F8A7681848184A4FF4004600219E
:101660000023E6FB0701FEF74BFD0121281A04F0D9
:1016700003FD03F051F90120FFF748FF94E807004C
:1016800005AB83E807000E4A1AB193E8070005F09E
:10169000A3F9FFF795FF03F037FE207809B0F0BDFE
:1016A0009407002020000020F27800007C780000E1
:1016B00010760000327900003F420F0040420F00D8
:1016C000D96900000B6801330B60014B1B68184798
:1016D00024000020014B1860704700BF2400002048
:1016E00007B50B46002102460191034801A9FEF708
:1016F0009FFF03B05DF804FBC516000008B5044663
:101700004FF02002EFF3118382F31288BFF36F8F43
:1017100005F0DEFB204600F087FC034805F0F7F8F3
:1017200000F00AF8FCE700BF5779000001491022D9
:101730000A60704710ED00E072B6404080F31188F7
:10174000BFF36F8FBFF34F8F30BF62B6BFF36F8FA2
:10175000704700BF72B6494081F3118820BF80F303
:10176000118862B6704700BF01B572B60B4A906926
:1017700000281EBF0021916105F0F2FB62B6EFF375
:101780000580A0F110004FEAC0000549014409C9D5
:101790009847BDE80140034908470000940900202C
:1017A00030710000CD19000030BFFFF7FDBF00BF52
:1017B00012498A684FF030001044EFF3098C80E83A
:1017C000F01F202080F31288BFF36F8F0C4F4FF073
:1017D0000066CA698A603E60506F0023536780F3D9
:1017E000118804B5104600F0E7FABDE8044002F1A4
:1017F000300090E8F01F8CF30988704794090020AE
:1018000004ED00E01EF0040F0CBFEFF30880EFF3CF
:101810000980816911F8021C0229FFD001B505F089
:101820008FF801BD43B2002B08DB012200F01F003E
:1018300002FA00F05B09024A42F82300704700BF39
:1018400000E100E0054B420900F01F0053F82220A0
:10185000012303FA00F01040704700BF00E100E0F0
:1018600070B54C1C072C05460E460FD9114A12497B
:101870001248582305F04BF81148314607232A46F1
:1018800005F045F80B48582104F068FF6BB2002BB7
:10189000ACBF03F160430B4B4FEA4414B8BF05F0F3
:1018A0000F05E4B2AABF03F561435C5583F800431A
:1018B00070BD00BF80790000B6790000107600008E
:1018C000D179000014ED00E00B4A08B50B4B22F073
:1018D0007F029A60BFF34F8FBFF36F8FD3F88820DA
:1018E00022F47002C3F8882002F006FC04F030FDF8
:1018F00000F0F6F902F00AFC0000000000ED00E044
:10190000094A0A49936809689967094958674B6801
:1019100043F080534B60002383F31188BFF36F8F34
:101920009368986F704700BF940900204C740000C2
:1019300000ED00E042F8203C009B42F81C3C0A49C4
:10194000019B42F8183C029B42F8143C21F0010133
:101950004FF0807342F8043C42F8081C0023203A00
:1019600002654367704700BF296900000B4A0346C0
:10197000906890B113F1160F406E05D0A0F12002CF
:101980009A4206D8834204D281422CBF0021012111
:1019900000E00021002908BF0020704794090020C2
:1019A00008B5094B98600D46144600F005FA20462C
:1019B00085F30988002163B681F31188BFF36F8F27
:1019C0000022002304F0B0FF94090020044B996822
:1019D000D869884203D003494FF080520A607047AB
:1019E0009409002004ED00E0EFF30880EFF3098193
:1019F00001B5724600F0AEF801BD00BF002080F3D3
:101A00001488BFF36F8F05F005FB00200D490860B7
:101A1000BFF34F8F0C4880F3088800F07DF9202039
:101A200080F3118809484FF40261401880F3098857
:101A3000EFF314800221084380F31488BFF36F8F03
:101A4000FFF742FF94ED00E0E01300206015002056
:101A5000234B70B515469A6A9A6A9A6A04469007AB
:101A60001AD5586B9A6A120616D519B19A6A22F0DD
:101A700080029A629A6A9A6A9A6AD6060FD49B6A18
:101A800099070CD40024164A936A43F0FF0393622B
:101A900000232B70204670BD6FF01500EAE7104E52
:101AA00073681A05EED52146FFF760FF044618B1AA
:101AB00080F309880224E6E7B36ADB06E2D5094A27
:101AC00009490A4840F2491304F021FF084804F08C
:101AD0001EFF044840F2491104F040FED3E700BF66
:101AE00000ED00E0117A00004B7A00001076000053
:101AF000957A00000D4B9A6A9A6A9A6A920508D5FF
:101B00009A6B9A6A120404D518B19A6A22F40042B8
:101B10009A62064B9A6A9A6AD20558BF9A6A9A6A7A
:101B2000002042F47F429A620870704700ED00E0A6
:101B3000074B9A6A9A6A9A6A9A6A9A6A9A6A9A6A37
:101B40006FEA02426FEA12429A620020704700BFB9
:101B500000ED00E070B5544B5C688AB00D46C4F3EC
:101B60000804002686F31188BFF36F8F02F07F43CD
:101B7000B3F17F4F08D102F00C03082B04D01207F9
:101B80005CBF054601267DB9484A4949494840F2AB
:101B9000F23304F0BCFE484804F0B9FE434840F27A
:101BA000F23104F0DBFD002500238DF80730E31E41
:101BB000032B72D8DFE803F002696D493A4BDC6A07
:101BC00014F0020469D1DA6A002A18DBDB6A5B00D0
:101BD0004ED5AB6933F8022C4DF602739A420DD004
:101BE00003F1604303F626631B780BB30DF1070284
:101BF00001212846FFF72CFF044600E02C689DF8E1
:101C000007309BB92022294602A804F0D1FE099B87
:101C1000002E44D0C3F3080222B96FEA53236FEABF
:101C20004323099302A9204604F088FE0AB070BD40
:101C3000224B1B782BB10DF107010120FFF75AFF52
:101C4000DAE71F4B1B889BB213B1FFF771FFD3E795
:101C50001C49164A174840F2C32304F058FE1A489C
:101C600004F055FE40F2C321104804F077FDC6E7AA
:101C700014490E4A0F4840F2C72304F048FE1348A7
:101C800004F045FE40F2C721EEE70DF10702002106
:101C9000AFE70DF107010020D0E70024AFE723F400
:101CA000FF7323F00103BCE700ED00E0117A0000B0
:101CB000B87A000010760000CB7A000029ED00E031
:101CC0002AED00E0387F0000097B00002D7B00003A
:101CD000024A536943F010035361704700ED00E07E
:101CE000044800232021C2180133302B82F800134E
:101CF000F9D1704700E100E0064A11680023C1F302
:101D0000072118468B4200D1704793601061013360
:101D1000F8E700BF90ED00E008B572B6002383F34A
:101D20001388FFF7E9FF144B4FF0FF32C3F8802010
:101D3000C3F88420C3F88820C3F88C20C3F890200F
:101D4000C3F89420C3F89820C3F89C20C3F88021DE
:101D5000C3F88421C3F88821C3F88C21C3F89021EB
:101D6000C3F89421C3F89821C3F89C2162B6BFF34D
:101D70004F8FBFF36F8F08BD00E100E0064B9B68FB
:101D8000834207D1EFF3058323B1044A536843F03C
:101D90008053536003F020BD9409002000ED00E063
:101DA000024B034A0348012100F068B800000420F8
:101DB0000000002024730000426E054B203A1A6098
:101DC000044A2021C3E901121846012100F07EB81F
:101DD000A007002000000B15F0B51E4F00268E4214
:101DE00001DB1046F0BD446884B353B104F1FF3CFD
:101DF00014EA0C0F18D11F2C16D905681CEA050F20
:101E000012D1202C0568D0F808C0D2B20FD9B4F195
:101E1000004F0ED8013CB4FA84F4C4F11F046400EE
:101E2000072A4CEA040406D96FF01502D9E7082402
:101E3000F6E73E24F4E725F01F05154345F01005AD
:101E400044F00104BA60FD6001323C6101360C309F
:101E5000C5E700BF90ED00E0034B05225A60BFF3D9
:101E60004F8FBFF36F8F704790ED00E0BFF35F8F30
:101E7000014B00225A60704790ED00E038B50E4DDE
:101E800001232A780C46FFF7A7FF2870163011D1DE
:101E900040F21113094A0A490A4804F038FD214664
:101EA000094804F034FDBDE83840044840F21111FF
:101EB00004F054BC38BD00BFF40900205D7B000075
:101EC000387F000010760000947B000010B5124AA5
:101ED000002312780C46FFF77FFF10F1160F08D091
:101EE0000E4B0022072800DD10BD98601A610130FA
:101EF000F8E70B4A0B490C484FF4987304F007FDC0
:101F000021460A4804F003FDBDE8104004484FF4A0
:101F1000987104F023BC00BFF409002090ED00E0AC
:101F20005D7B0000387F000010760000C07B000061
:101F3000254910B50C68082C13D94FF4A473234A13
:101F40002349244804F0E3FC23480822214604F0F6
:101F5000DEFC1E484FF4A47104F000FC4FF0FF308B
:101F600010BDFFF783FF48681C490022944200F12E
:101F70000C0019D11A4B1C70FFF76EFF0B68C3F3EE
:101F80000723082B0ED01749104A12484FF4D47378
:101F900004F0BDFC144804F0BAFC0C484FF4D471B2
:101FA00004F0DCFB0020DBE78A6050F80C3C23F0F7
:101FB0001F03134343F01003CB6050F8043C43F07D
:101FC00001030B610132D1E7307300005D7B00003B
:101FD000387F000010760000ED7B000090ED00E0FF
:101FE000F4090020217C0000717C0000014B186086
:101FF000704700BF280000204FF02003EFF311824C
:1020000083F31288BFF36F8F06490123C1F840356F
:102010004FF08041C1F8783582F31188BFF36F8F9C
:102020000020704700E001404FF08043C0B2C3F889
:102030001C05BFF34F8F0549054BCA6802F4E062E7
:102040001343CB60BFF34F8F00BFFDE700ED00E00F
:102050000400FA0520B1034B800143F00103184747
:10206000704700BFF07200002DE9F041104C071BD3
:10207000C7F347174FF00C0808FB07F8064608F1AE
:1020800048000D462044402104F0C4FC011E09DB39
:10209000084B4444C4E91035074B53F83730BDE8CA
:1020A000F041184730462B46BDE8F041184700BFC5
:1020B000BC070020776A00006473000038B5CCB21A
:1020C000012C054609D9094909480A4A7E2304F02A
:1020D0001EFC08487E2104F041FB2B690C2104FB07
:1020E0000134A06C00F0070038BD00BFDE7C0000AA
:1020F00010760000A17C0000F8B5CCB2012C076975
:10210000054616460BD918491848194A40F2531388
:1021100004F0FDFB164840F2531104F01FFB4FF092
:102120002003EFF3118283F31288BFF36F8F0C2328
:1021300003FB0471896C11F0C00101D08E4210D1F3
:1021400003FB047301219964002082F31188BFF31B
:102150006F8F28B9696801EBC40463689847002051
:10216000F8BD4FF0FF30F0E7DE7C00001076000095
:10217000A17C000070B50D460649411A044649117C
:1021800005484022FFF7B8FF2B4601462046BDE830
:1021900070401847BC07002088700000002270B50E
:1021A000012104461046FFF75BFB0020FFF73AFBD6
:1021B0000F4801F053F90F4B984215D101F072F915
:1021C00026690D49304604F088FB00280BDB012509
:1021D000B5642469084904F1200004F07EFB00285E
:1021E00001DB6565002070BD6FF00400FBE700BFF8
:1021F000312200000000AD0B7473000001460C2377
:1022000009484B4370B5C418D4E91056002248332E
:102210002264184404F01CFC2DB132462B460348BE
:10222000BDE87040184770BDBC07002088700000F2
:10223000012808B506D0032808D0A8B9104B9B6C1C
:102240005B071BD1BDE80840FFF7D8BF0D490E4A18
:102250000E4840F2662304F05AFB40F26621BDE8C6
:102260000840094804F07ABA0649074A074840F28C
:102270006A2304F04CFB40F26A21F0E708BD00BF7E
:10228000BC070020387F0000A17C00001076000011
:1022900008B54FF02003EFF3118183F31288BFF3E9
:1022A0006F8F124A136843F0020013F001031060AD
:1022B0000CD04FF08042D2F80C34D2F80C2413F03A
:1022C000010303D00A4804F0C3FB012381F3118802
:1022D000BFF36F8F23B1BDE808400020FFF78EBF2A
:1022E000BDE80840012001F0FDB800BF140800203F
:1022F00004080020094BBFF35B8F53E8002F22F046
:10230000020143E800100028F7D1BFF35B8FD30729
:1023100002D4012001F03AB9704700BF1408002030
:102320001FB500220123CDE90223094ACDF800D0D0
:102330006B46CDF804D004F0B0FB002805DB4FF469
:1023400080420023684603F039FB05B05DF804FBCA
:10235000956A00002DE9F8434949BFF35B8F0546B4
:10236000012251E8003F41E800200028F9D1BFF3E5
:102370005B8FA3B9434944484B60CB608A60FFF749
:102380002DF800280BDA41494148424A40F2262301
:1023900004F0BDFA3F4840F2262104F0DFF9ADB366
:1023A0006B1E012B56D8012D07D14FF08043D3F877
:1023B0001C3403F00303012B28D004F01BFE044659
:1023C00018B9354B1B78002B52D14FF02003EFF397
:1023D000118683F31288BFF36F8F01242F4FDFF82C
:1023E000C480DFF8C4904FF08042D2F81834D2F89D
:1023F0001824D2030CD503F00303012B01D0012DC7
:1024000006D10CB386F31188BFF36F8FBDE8F88354
:10241000ACB13046FFF79EF94FF08042D2F8183544
:10242000002BE0D139680029DDD03B603B680123F7
:10243000C2F81835C8F88031C9F80030D3E7002158
:10244000212003F08BF9E7E74FF080430222C3F825
:102450000423DBE712490E480E4A4FF40E7304F0D2
:1024600056FABDE8F8430B484FF40E7104F076B904
:102470004FF080430222C3F808230646AEE700BFB0
:1024800018080020AC070020DC070020027D0000B7
:1024900010760000A17C0000060E00200401004020
:1024A000387F000000E100E00800004008B5084B5C
:1024B0000848186004F04AFD38B10748FFF796FD58
:1024C0000548FFF707F9002008BD6FF01200FBE791
:1024D0001C080020B8700000DD2400000A2838B570
:1024E000074D044604D1286883680D215B6898472E
:1024F00028688368E1B25B689847204638BD00BF12
:102500001C08002070B5056916460C4661B92249C1
:10251000224A2348242304F0FAF9224804F0F7F968
:102520001E48242104F01AF9636863B91E491B4A46
:102530001B48252304F0EBF91C4804F0E8F9174880
:10254000252104F00BF96B685BB100229C4213D18A
:1025500023685AB9AA686B60944200D1AB6000232B
:10256000236076B9002070BD0B46EFE71360AB68BF
:102570009C4208BFAA60F2E719681A460029F3D105
:102580003EB16B682360A8686C600028EAD1AC603B
:10259000E9E76FF01500E6E73E7D0000117D0000E1
:1025A00010760000477D0000567D0000687D000029
:1025B0002DE9F04704680F4616464CB32568DFF84E
:1025C0005880DFF85890DFF858A0002D38BF00255C
:1025D000A3681E4214D0636863B949464523424646
:1025E000504604F094F90B4804F091F94521404617
:1025F00004F0B4F8D4E90132214632403846984715
:1026000035B12B68002B38BF00232C461D46DFE771
:10261000BDE8F087687D0000117D00007F7D00002F
:10262000107600000268530910B504462CD0012B27
:102630004FF6FF7318BF002302F01F02D340DB07E1
:102640000BD414491448154A4FF4057304F05FF98C
:1026500012484FF4057104F081F8236803F01F025B
:102660005B0922600DD0012B11D00D490A480B4A9D
:1026700040F2192304F04BF9084840F2192104F004
:102680006DF84FF0A04010BD4FF0FF33D4E7054880
:10269000F9E700BFBE7D0000107600008B7D0000D2
:1026A000387F00000003005008B5094B1A786AB95A
:1026B0000121197006200521FFF7D2F80620FFF747
:1026C000B1F8044B4FF00042C3F80423002008BDCA
:1026D000F509002000600040B2F5A03F2DE9F74366
:1026E000046907460E469046994601F01F0540F0E2
:1026F000AB8043681B7A01A845EA43130193FFF7B7
:1027000091FF019B03F5E07350F82330D80700F1E7
:10271000BB80E3680121B14019436369E160012195
:10272000B140B8F5A03F0CBF0B438B436361A36975
:10273000574AD7F81080B9F5C02F0CBF0B438B4315
:10274000A3612369B9F5802F0CBF194323EA010166
:102750007B6821611B7A45EA4315D2F804330020D7
:10276000DBB200F5A27152F82110C1F305218D42B0
:1027700075D123FA00F1C90771D5830003F18043B5
:1027800003F5C043D3F8101521F00101C3F810156B
:1027900001238340C2F80833C0B200F099FF2846F5
:1027A000002104F0BCF9D8F80C00F04010F0010052
:1027B00047D0D8F81400F04010F0010457D0D8F8F2
:1027C0001830F340DB075FBFD8F8101021FA06F687
:1027D00006F00106C6F1020601A854BFF6B20326B0
:1027E00000F098FF2B4B98423ED19DF804108B00CF
:1027F00003F1804303F5C0432D02D3F8102522F4E2
:102800004F3222F44072C3F81025D3F8102505F496
:102810007C5515438A0002F1804202F5C24245EA26
:1028200006460020C3F8106510601268D3F8102522
:1028300042F00102C3F81025154A01238B40C2F86B
:10284000043303B0BDE8F083B2F5005F7FF461AFFD
:10285000012101FA06F3E16821EA03015DE7013095
:1028600008287FF47EAF9AE76FF01200E9E7D8F806
:102870001010F14001F00101C1F103012846C9B275
:1028800004F04DF92046DCE76FF08500D9E700BF82
:10289000006000400000AD0B2E4BF7B52E4C406899
:1028A0001340A34245D00ED8062B44D006D8002BA7
:1028B00041D0022B41D06FF0150038E0B3F5801FF6
:1028C000F9D1012409E0254CA34238D0B3F5A00F7B
:1028D00037D0B3F5800FEED10224D50682F4807391
:1028E00054BFC2F340160326C3F300279305C2F377
:1028F000402507D51305D0F804C024D501238B400B
:10290000CCF80835037A01F01F0141EA431101A810
:102910000191FFF787FE019A45EA470343EA042342
:1029200002F5E07243EA860340F82230002003B04B
:10293000F0BD0724D1E71C46CFE70424CDE70524EA
:10294000CBE70324C9E7530542BF01238B40CCF8F2
:102950000C35D7E70600F00006001000020040002A
:10296000F0B5002485B0CDE90044CDE90244264EFF
:1029700035685DB102A9254804F0E4F803A9009088
:10298000234804F0DFF8019034603368214C0022C2
:1029900001269446D4F8043306FA02F119421BD0FA
:1029A000910001F1804101F5C2410B68A3B102F52C
:1029B000A27304AF54F82330C1F800C0C3F3403011
:1029C00007EB8000C3F3042350F8107C06FA03F3EE
:1029D0003B4340F8103C0B680132082ADAD1009AD8
:1029E0001AB10A490C48FFF7E3FD019A1AB10849E8
:1029F0000A48FFF7DDFD2DB1044804F0E7F804486C
:102A000004F0E4F805B0F0BD7C610040E87000001F
:102A100000710000006000402408002040080020F1
:102A200002480021C2E90001002070470024F400A0
:102A300002464068126938B500F10803043200F11B
:102A40000C04194613F9015B002DB4BF00254FF4A7
:102A50000045A34222F8025BF4D100231A4600F09D
:102A600083FF034B984214BF6FF00F00002038BD66
:102A70000000AD0B0268530910B504462CD0012BA1
:102A80004FF6FF7318BF002302F01F02D340DB078D
:102A90000BD414491448154A4FF4057303F037FF5B
:102AA00012484FF4057103F059FE236803F01F022A
:102AB0005B0922600DD0012B11D00D490A480B4A49
:102AC00040F2192303F023FF084840F2192103F0D4
:102AD00045FE4FF0A04010BD4FF0FF33D4E705484E
:102AE000F9E700BFBE7D0000107600008B7D00007E
:102AF000387F000000030050F0B54B79012B2AD03D
:102B0000032B25D110268B79032B21D1CC792CB125
:102B1000012C1DD143685B689B0719D00A7912B15B
:102B2000022A15D10E220B684568B3F5164F2D68A1
:102B300065D02DD8B3F5165F64D016D8B3F5966F6F
:102B400062D00AD8B3F5967F61D0B3F5167F61D015
:102B50006FF0850052E00026D5E7B3F5166F5CD024
:102B6000B3F5965FF4D1374B3CE0B3F5E14F57D066
:102B700007D8B3F5615F55D0B3F5964FE8D1324B26
:102B800030E047F61227BB42E2D14FF4000329E0C0
:102B9000B3F5613F48D013D8B3F5963F47D009D875
:102BA0004DF6C027BB4244D0B3F5614FD0D14FF4AE
:102BB0006B0317E0B3F5E13FCAD14FF0EB7311E0BF
:102BC000B3F5612F38D008D8204FBB4237D0B3F5CA
:102BD000E12FBDD14FF0E86304E01D4FBB42B7D1F8
:102BE0004FF08053C5F82435036903C934432243A9
:102BF0000433C5F86C2583E803000020F0BD4FF4D2
:102C00001D03EFE7134BEDE74FF49E23EAE74FF484
:102C1000A033E7E74FF41C33E4E74FF41D23E1E76B
:102C20000D4BDFE70D4BDDE74FF06C73DAE70C4B34
:102C3000D8E74FF46503D5E74FF07063D2E74FF064
:102C40008063CFE700B0130000A04E0090D00300D7
:102C500040420F000050270000C0750000F03A000D
:102C600000903A010268530910B504462CD0012B9C
:102C70004FF6FF7318BF002302F01F02D340DB079B
:102C80000BD414491448154A4FF4057303F03FFE62
:102C900012484FF4057103F061FD236803F01F0231
:102CA0005B0922600DD0012B11D00D490A480B4A57
:102CB00040F2192303F02BFE084840F2192103F0DB
:102CC0004DFD4FF0A04010BD4FF0FF33D4E7054855
:102CD000F9E700BFBE7D0000107600008B7D00008C
:102CE000387F000000030050F8B5066905460F461E
:102CF00004F080F910B92C4B1B7883B94FF02003F6
:102D0000EFF3118483F31288BFF36F8F284604F02A
:102D100099F828BB84F31188BFF36F8FEEE7642422
:102D2000284604F08FF870B9012004F0E2F8013C65
:102D3000F6D10021212002F011FDF0E784F3118883
:102D4000BFF36F8FF5E74FF02003EFF3118483F3A8
:102D50001288BFF36F8F284604F074F80028EDD076
:102D600006F8107F69680B680122C3F84465C3F850
:102D700048250022C3F82021D3F82001C3F85821A8
:102D8000D3F858214A68D20641BF0822C3F800256B
:102D90004FF48002C3F8042301229A6084F311885F
:102DA000BFF36F8FF8BD00BF060E00202DE9F34181
:102DB000456806692C680023C4F800350746AB68EF
:102DC000306001A80193FFF74DFF019A0123934062
:102DD000C0F80835AB68019301A8FFF743FF019BDA
:102DE00003F5E073032240F82320EB68591C0CD054
:102DF00001A895F818800193FFF734FF019B03F5B4
:102E0000E0734FEA880240F82320D5E90223C4F892
:102E10000C25C4F814352B695A1C0CD001A895F860
:102E200019800193FFF71EFF019B03F5E0734FEA42
:102E3000880240F823206B69581C13D001A8019325
:102E4000FFF710FF019A01239340C0F808356B6922
:102E5000019301A8FFF706FF019B03F5E07303222E
:102E600040F82320D5E904323969C4F808253846EA
:102E7000C4F810350431FFF73FFE0746002845D15E
:102E80006B68190719D506F1120000F07BFC234B83
:102E900098423FD1B07CC30003F1804303F5F8337F
:102EA00004F10C0204F59071C3F81015C3F8142551
:102EB0001B4A01238340C2F804350823C4F80035B7
:102EC000EB6801330CD00023C4F81031D4F8103172
:102ED00006F11103C4F834350123C4F838352360F2
:102EE0006B681A075CBF4FF48072C4F80423DB06DA
:102EF00044BF4FF48003C4F8043310360023C4F8F1
:102F00004465C4F848350123A360E360384602B045
:102F1000BDE8F0816FF00407F8E700BF0000AD0BDB
:102F200000F00140194970B5044622F07F46086858
:102F3000C1E90023A6F50013101AB3F5400F4FF0B6
:102F400000050AD2124B19680A060B0A9219114998
:102F500043F10003C1E90023012503F0DDF8A300DC
:102F600003F1804303F58833D3F84025B2420BD1F7
:102F70001DB94FF40002C3F84025074B4FF48030D1
:102F800000FA04F4C3F8444370BD00BF48010020B8
:102F900070080020300100200010014010B501230E
:102FA0008340114ABFF35B8FDC4352E8001F01EA04
:102FB000040C42E800CEBEF1000FF6D1BFF35B8FE8
:102FC0004FF4803202FA00F002F1804202F58052A2
:102FD000C2F80803BFF35F8FBFF36F8F0B4214BFBC
:102FE0000120002010BD00BF6C0800200123124A00
:102FF000BFF35B8F834052E8001F194342E8001C77
:10300000BCF1000FF7D1BFF35B8F0C4A4FF4803354
:103010008340C2F804330A4BBFF35B8F1B68BFF3D6
:103020005B8F23FA00F0C30742BF064B4FF4003218
:10303000C3F80021704700BF6C0800200010014059
:103040006808002000E100E00D4B1B68190A180613
:10305000BFF35F8F0B4BD3F80435C01841F100016B
:10306000B3F5801F0AD2084BD3E90023994208BF69
:10307000904203D210F1807041F10001704700BF0F
:103080007008002000100140300100202DE9F04FB1
:1030900085B016461F460546FFF780FF0190FFF7F3
:1030A000D3FFB94208BFB0427FD2B6EB000867EB4E
:1030B000010900234FF080724B4508BF4245C0F024
:1030C0008580444B03EB0513D3E902239F4208BFDD
:1030D000964254D04FEA85094FF4803B09F180496C
:1030E00005F150080BFA05F209F588394FEA88080E
:1030F0001FFA88F80292384AD9F8400526F07F4333
:1031000008F1804808F588381C469346D2F804A593
:10311000A0EB0A0020F07F402AF07F410128C9F887
:10312000401505D10393132003F06EFF2A4A039B39
:1031300002990AF1020CA4EB0C0020F07F40B0F5DC
:10314000000F88BF64460020C8F80000D8F80000CF
:10315000CBF8441324F07F40C9F84005DBF80405A0
:10316000824506D0201A023820F07F40B0F5000FCB
:1031700019D8E41A24F07F44321947F10003154CA2
:10318000290104EB0510C0E902230E9A0F9B62503F
:1031900043600024019B13B12846FFF727FF204618
:1031A00005B0BDE8F08F2046B0E701230B4ABFF31E
:1031B0005B8FAB4052E8001F194342E80010002823
:1031C000F8D1BFF35B8F32463B46D8E76FF015046A
:1031D000E0E700BF3801002000100140680800202F
:1031E0002DE9F743344CD4F804339A0709D5334B0F
:1031F0001A6832B100221A60314A1B681368013321
:1032000013604FF02003EFF3118283F31288BFF3B2
:103210006F8FD4F80433DB0312D5BFF35B8F294BD8
:1032200053E8001F21F0010043E80006002EF7D10B
:10323000BFF35B8F244B002936D11968002933D1A5
:10324000002382F31188BFF36F8F53B3FFF7FCFEA7
:1032500006464FF02003EFF3118083F31288BFF38B
:103260006F8F1A4BD3E90289494508BF46454FF095
:1032700000021ED34FF0FF364FF0FF37D3E90015A1
:10328000C3E902671A604FF48033C4F8483380F30F
:103290001188BFF36F8F21B1009542464B46002045
:1032A000884703B0BDE8F083002119601B68012343
:1032B000C7E71146EBE700BF0010014004110140D1
:1032C00070080020680800204011014038010020EB
:1032D00073B51A4B1A4D00244FF0FF304FF0FF31F9
:1032E000C5F80845C3E902014FF48033C5F804333B
:1032F000144B02264FF400320121C5F8046311205B
:10330000C3F880212246FEF7ABFA1120FEF78AFAB5
:103310000D4AC5F80463012313600C4A2B60136047
:103320000B4B0C4A0093019400232046FFF7AEFE9E
:103330003046FFF70FF8204602B070BD380100207C
:103340000010014000E100E0081001406C0800207E
:10335000252F0000FFFF7F00144B13B5B0F1FF3F96
:1033600008BF1846441E002C1EDD9C42A8BF1C4608
:10337000FFF76AFE0E4B0F49D3E90023801AB0F520
:10338000000F28BF00240130044408480091844203
:1033900028BF044612194FF00000019043F10003CA
:1033A000FFF774FE02B010BD0024E1E7FFFF7F00CD
:1033B00048010020252F000008B5FFF745FE024B0D
:1033C0001B68C01A08BD00BF4801002010B5064C9C
:1033D000064907482246172303F099FA2046172189
:1033E000BDE8104003F0BAB9F67D0000387F000058
:1033F0001076000008B578B101281CD0144A154990
:1034000015484FF44F7303F082FA11484FF44F718F
:1034100003F0A4F900200DE031B14FF08043D3F860
:10342000183403F003030B604FF08043D3F8180403
:10343000C0F3004008BD31B14FF08043D3F80C34E5
:1034400003F001030B704FF08043D3F80C04EFE757
:10345000327E0000387F00001076000010B5044670
:1034600048B90A490A480B4AB52303F050FA0948FB
:10347000B52103F073F9084B1A7922B901220748E4
:103480001C609A8010BD0648FCE700BFA37E0000C8
:1034900010760000667E0000740800200000AD0B6E
:1034A0000C00AD0B08B50B4B1B794BB90A490B4807
:1034B0000B4ACE2303F02BFA0948CE2103F04EF934
:1034C0000020FEF7BFF918B9BDE80840FEF7AAB919
:1034D00008BD00BF74080020B17E00001076000017
:1034E000667E0000224B1B7913B504465BB9214967
:1034F0002148224A4FF4857303F009FA1F484FF41C
:10350000857103F02BF974B1012C27D01B4A1C499B
:1035100019484FF49E7303F0FAF918484FF49E715E
:1035200003F01CF916E001A92046FFF763FF4FF0F6
:10353000804388B1019A012A0ED1C3F81825114B96
:1035400000221A601B684FF080430222C3F8042354
:1035500001229A6002B010BD0022EEE70A4B002261
:103560001A601B684FF08043C3F804431C60F1E706
:1035700074080020B17E000010760000667E000016
:10358000387F0000040100400001004037B52F4D96
:103590002A7904465AB92E492E482F4A40F243133D
:1035A00003F0B5F92C4840F2431103F0D7F87CB191
:1035B000012C28D029492748274A40F25F1303F0FD
:1035C000A6F9254840F25F1103F0C8F803B030BDFA
:1035D0004FF080430222C3F80823C3F8044103F5E7
:1035E000827301221B681E4B42F210741A60002184
:1035F0000846FFF7FFFE0028E8D0012003F079FC21
:10360000013CF4D1E2E74FF080430022C3F80843C5
:10361000C3F8002103F580731B68124B1C608DF802
:10362000074042F210740DF107010120FFF7E2FE9E
:1036300010B900236B71C9E79DF807000128F8D184
:1036400003F057FC013CEED1F3E700BF7408002003
:10365000B17E000010760000667E0000387F00001A
:103660000C00004004000040164B07B51A686AB110
:1036700000221A601B684FF080430122C3F8082320
:10368000114B587910B95A711B6898470F4B1A683B
:103690006AB10020186001A91B68FFF7ABFE019A10
:1036A0004FF0804332B90122C3F818259A6003B065
:1036B0005DF804FB0222C3F80823034B01201B68BA
:1036C0009847F4E70001004074080020040100401E
:1036D000012303FA00F010F0FF0F12D04FF0200387
:1036E000EFF3118183F31288BFF36F8F064AD36D16
:1036F00023EA0000D06581F31188BFF36F8F034880
:1037000070470348704700BF7C0800200000AD0BE5
:103710000400AD0B2DE9F0410546DFF860E01648E6
:10372000DFF85C800024FF220126E3B24FF0200185
:10373000EFF3118C81F31288BFF36F8F22FA03F13C
:10374000C9070AD5DEF85C1006FA03F7394201BF53
:103750003943CEF85C1040462B708CF31188BFF3D0
:103760006F8F404505D006FA03F39A4304F1010434
:10377000DBD1BDE8F08100BF0200AD0B7C0800206A
:103780000000AD0B2DE9F041144A154E154F0546CA
:10379000154800244FF0010E5FFA84FC4FF020031F
:1037A000EFF3118883F31288BFF36F8F0EFA0CF3D7
:1037B000134207D031680B4201BF1943316085F8CD
:1037C00000C0384688F31188BFF36F8FB84203D02A
:1037D0009A4304F10104DFD1BDE8F081FFFF0F003F
:1037E000DC0800200000AD0B0200AD0B2DE9F0411C
:1037F00004460E4615465AB932493348334A40F218
:10380000A72303F084F8314840F2A72102F0A6FF75
:103810002F685FB92E492C482C4A4FF42D7303F0C2
:1038200076F82A484FF42D7102F098FF04EB461801
:10383000C8F82075AF88002F38D12649234A22487E
:1038400040F2BD2303F063F840F2BD211F4802F0AF
:1038500085FFC8F82475AF68B7F1807F0BD31E4988
:1038600019481A4A40F2C72303F051F8174840F2AA
:10387000C72102F073FFED684FEA461804EB4616C5
:10388000B5F1807FC6F828750BD314490E480F4A4E
:103890004FF4347303F03BF80C484FF4347102F0EA
:1038A0005DFF4444C4F82C55BDE8F0813B04D0D5FD
:1038B0000B49064A044840F2BE2303F028F840F2C0
:1038C000BE21C3E7017F000010760000CF7E00001C
:1038D000167F00002E7F0000587F0000797F0000D7
:1038E0003A7F00000268530910B504462CD0012B22
:1038F0004FF6FF7318BF002302F01F02D340DB070F
:103900000BD414491448154A4FF4057302F0FFFF15
:1039100012484FF4057102F021FF236803F01F02E3
:103920005B0922600DD0012B11D00D490A480B4ACA
:1039300040F2192302F0EBFF084840F2192102F08F
:103940000DFF4FF0A04010BD4FF0FF33D4E7054806
:10395000F9E700BFBE7D0000107600008B7D0000FF
:10396000387F0000000300502DE9F04F074687B074
:10397000914698460C4649B953495448544A8923BC
:1039800002F0C5FF5248892102F0E8FE3E79514D10
:103990000C2171436B181A7A002A40F0938045F885
:1039A0000190C3F8048004F1FF390DF1080804F117
:1039B000030A19F8012FFF2A7FD0217B22F0800B08
:1039C000C8F800B0B1B91306CDF804B001A86CD5A1
:1039D000FFF788FF019901228A40C0F8082501A855
:1039E000CDF804B0FFF77EFF019B03F5E0730322DF
:1039F00040F82320D14508F10408DAD1D7F8008037
:103A0000029BC8F86035039BC8F86435049BC8F86E
:103A10006835059BC8F86C350123C8F80035B4F942
:103A2000083094F805B094F806A0B4F80890002B7C
:103A30000BDA29492548294A4FF4277302F067FF1A
:103A400026484FF4277102F089FEC8F80CB5386893
:103A5000C8F804A5C8F808956389C0F81035002394
:103A6000C0F80032C0F80033C0F81C31D0F81C2177
:103A7000C0F81031D0F81021C0F81431D0F814215A
:103A8000C0F80431D0F804310C237343EB581BB158
:103A900040F30730FDF7C6FE0C2303FB0655104824
:103AA00001232B7207B0BDE8F08FFFF71BFF0199D0
:103AB00001228A40C0F80C2591E74FF0FF33C8F887
:103AC000003097E70748EDE7D77F00001076000049
:103AD0009C7F0000E0080020E07F0000CF7E000017
:103AE0000000AD0B0500AD0B2DE9F04198460379C0
:103AF0001446314A0E4603EB430102EB81070C21C9
:103B000001FB032305461B7A5BB92C492C482D4A3F
:103B100040F2251302F0FBFE2A4840F2251102F084
:103B20001DFE5CB928492648264A4FF4937302F0DB
:103B3000EEFE24484FF4937102F010FE336803F058
:103B40006043B3F1005F0BD020491D481D4A40F28D
:103B5000271302F0DCFE1B4840F2271102F0FEFDA5
:103B6000286832460021FFF741FE286832460121CD
:103B7000FFF73CFE286804F0010303EB540418F03F
:103B8000010FC0F8144514D118F0020203D0002B25
:103B900014BF08220422002BC0F8002239465FFA25
:103BA00088F218BF0C23BDE8F04108BF082303F0DA
:103BB000A2B91022EFE700BFE0080020018000005A
:103BC000107600009C7F00002D80000040800000E7
:103BD00070B5124E04790C2202FB04620546127A7B
:103BE0005AB90F490F48104A40F2A31302F08FFE52
:103BF0000D4840F2A31102F0B1FD0C232A6803FB2B
:103C00000464237AD2F80421DBB21AB9981E18BFD3
:103C1000012070BD01202072FBE700BFE0080020FA
:103C200001800000107600009C7F000038B5144A27
:103C300003790D460C2101FB032304461B7A5BB973
:103C400010491148114A4FF4BF7302F060FE0F484B
:103C50004FF4BF7102F082FD23680022C3F80022F6
:103C600001225A602046FFF7B3FF38B92046FFF71C
:103C7000AFFF18B9002DF9D1284638BD0125FBE763
:103C8000E008002069800000107600009C7F0000A2
:103C9000034B1868A0F1080358425841704700BF11
:103CA00030010010064B1B68082B06D1054B1B6822
:103CB000052B02D8044AD05C70470020704700BF33
:103CC0003001001034010010B4800000024AD2F824
:103CD0000034002BFBD0704700E0014010B5FFF727
:103CE000D7FF40B14FF080430022C3F80C21C3F846
:103CF0001021C3F83825FFF7CBFF002846D04FF03E
:103D000080525B4BD2F80414C3F82015D2F8081483
:103D1000C3F82415D2F80C14C3F82815D2F81014DF
:103D2000C3F82C15D2F81414C3F83015D2F81814AF
:103D3000C3F83415D2F81C14C3F84015D2F8201477
:103D4000C3F84415D2F82414C3F84815D2F828143F
:103D5000C3F84C15D2F82C14C3F85015D2F830140F
:103D6000C3F85415D2F83414C3F86015D2F83814D7
:103D7000C3F86415D2F83C14C3F86815D2F840149F
:103D8000C3F86C15D2F84424C3F87025FFF78AFFF6
:103D900010B1384B384A1A60FFF784FF18B1374B1F
:103DA000FB22C3F81825FFF77DFF48B13449354B96
:103DB0000A681B6822F00F0203F00F0313430B6025
:103DC000FFF770FF18B1304B4FF400721A60FFF725
:103DD0005FFF48B14FF08043D3F80024D20744BFBF
:103DE0006FF00102C3F80024284B1B68082B0ED18A
:103DF000274B1B68052B02D8264AD35C3BB14FF0FA
:103E00001023D3F808224FF08043C3F858254FF011
:103E10001023D3F80022002A03DBD3F80432002B4E
:103E200022DA1D490123C1F80435FFF74FFF4FF097
:103E300010201224C0F80042FFF748FFC0F80442E7
:103E4000FFF744FF0023C1F80435FFF73FFFBFF33E
:103E50004F8F1249124BCA6802F4E0621343CB60E1
:103E6000BFF34F8F00BFFDE70E4B0F4A1A6010BD26
:103E700000C000408C5600404881030000F0004024
:103E8000E40E00405802001040960240300100103D
:103E900034010010AE80000000E0014000ED00E0C1
:103EA0000400FA05540000200090D00310B5144C13
:103EB000144A1549032323616361144BA261E36132
:103EC0004FF4806323620023A3626362E36222668D
:103ED0000F4A6266E01D1022A2662367E3666367ED
:103EE00002F040FDBFF35F8F0A49204602F03AFD21
:103EF000BFF35F8F2023A371BFF35F8F10BD00BF9F
:103F0000EC080020BA800000C3800000060A0020F0
:103F1000F6090020C78000000E4B70B553F8204012
:103F2000013053F82060A64200D870BDD4E90035B6
:103F30002846984765B1EB6830B10028B8BF4042C9
:103F4000FF28A8BFFF2018705A7842F001025A706B
:103F50000834E8E73874000070B5054610B900244D
:103F6000204670BD0378002BF9D00F4A0F4C16463F
:103F7000944208D10D4CB442F1D0204602F0E6FF45
:103F800050B91834F7E7204602F0E0FF10B123687B
:103F9000AB42E5D01834EBE72168284602F0FCFC80
:103FA0000028EED1DCE700BF30710000887000000F
:103FB000F8B504460E464FF02003EFF3118783F364
:103FC0001288BFF36F8F01F001FC31460546204691
:103FD00002F07FFF042C0CD10A490B4A0B488F23B7
:103FE00002F095FC0A4802F092FC07488F2102F08B
:103FF000B5FB87F31188BFF36F8F2846BDE8F84003
:10400000FDF7BCBEF0800000CE80000010760000FE
:104010000D810000114CA26892F90E20002A08B50B
:1040200009DA0F490F48104A462302F070FC0E4887
:10403000462102F093FB4FF02002EFF3118382F34D
:104040001288BFF36F8F01F0CFFFA061FDF7DEFA9A
:104050000028F0D1FDF770FBEDE700BF94090020C8
:1040600063810000107600004281000030B500231B
:1040700087B00122CDE904230F22CDE902320D4C95
:104080000D4A01930D49182304EBC01403FB0023D0
:104090004FF4B075009305FB0011094B4FF4A0726B
:1040A000204601F015FD637B23F00403637307B022
:1040B00030BD00BF500100209409002000140020F2
:1040C0001540000008B50A4B012202201A70FFF7C4
:1040D00023FF02F057F90320FFF71EFF01F05CFDFC
:1040E000FCF798F9034A137B23F00103137308BD0F
:1040F000060E0020D00100200248034A0021121AB7
:1041000002F061BC30010020C40F002080B5DFF850
:10411000D880A6B088F308882D4D2E4E6B69DFF845
:10412000CC9043F4007300246B61E02385F82230C7
:10413000EC772C766C76AC7685F820406B6A43F48D
:10414000E0236B6285F82340FDF7C2FDFDF7EEFA30
:104150004FF0FF33AB62EB62FDF7EAFEFDF720FEA6
:1041600040F20113ADF8243006ABB360CDE91F4433
:1041700002F0EBFE2046FFF7CFFE0120164DFFF7C1
:10418000CBFE01F08DF9154B0593012314490094E2
:10419000CDE903434FF480624B46CDE90144284604
:1041A000F56101F095FC6A7B22F004026A73074610
:1041B000284600F0C1FD2046FFF758FF094BF36089
:1041C0004A46394628463475C6F80480FDF7E8FBB0
:1041D00000ED00E094090020D00100208B81000058
:1041E000E00F002050010020801D0020C54000008D
:1041F0002DE9F041164D174C174EA846AC420CD98C
:10420000164917483C23324602F081FB154802F05C
:104210007EFB3C21304602F0A1FA444502D3002047
:10422000BDE8F081D4E9042141EA020313F003035D
:104230000BD1E068A361834201D12034DEE7A76996
:104240000F600133A1611144F5E76FF01500E7E756
:10425000DC000020DC00002090810000B58100001F
:1042600010760000D28100002DE9F74304460E4687
:104270009046994600F108054FF02003EFF31187AF
:1042800083F31288BFF36F8F284601F015FD68B9DC
:10429000244A25492548812302F039FB2448294630
:1042A00002F035FB1F48812102F058FA284601F040
:1042B00021FDA369EBB133601B68A361E36901339E
:1042C000E3610024284601F005FD68B9154A194943
:1042D0001648AC2302F01BFB1748294602F017FBD7
:1042E0001048AC2102F03AFA87F31188BFF36F8FC0
:1042F00013E058EA090203D133606FF00B04E1E7E1
:104300002246CDE900893946284600F0C7FE04461A
:1043100018B90A4B9B685B693360204603B0BDE85F
:10432000F08300BFFD7700004F780000107600009A
:1043300064780000237800003A7800009409002097
:104340002DE9F04104460E4600F108054FF0200328
:10435000EFF3118783F31288BFF36F8F284601F0C4
:10436000ABFC68B9224A23492348812302F0CFFAE3
:104370002248294602F0CBFA1D48812102F0EEF9CD
:10438000284601F0B7FCD4F81880B8F1000F0FD11F
:10439000204601F035F858B132684261C0F87880A3
:1043A00000F0CAFC39462846BDE8F04100F070BA7A
:1043B0003368A2691A603368A361E369013BE36172
:1043C000284601F087FC68B9094A0D490A48AC2320
:1043D00002F09DFA0B48294602F099FA0448AC21F4
:1043E00002F0BCF987F31188BFF36F8FBDE8F0814D
:1043F000FD7700004F780000107600006478000020
:10440000237800003A7800002DE9F341044616466F
:104410001F46EFF3058363B17049714A7148652304
:1044200002F075FA704802F072FA6D48652102F0E8
:1044300095F94FF02003EFF3118883F31288BFF34F
:104440006F8F6A4801F038FC68B9694A6949654864
:10445000812302F05CFA6549674802F058FA644823
:10446000812102F07BF9614801F044FCE368634A72
:10447000FBB1A068916888423DD056EA07033CD161
:104480005A4801F027FC68B9594A5D495548AC23A0
:1044900002F03DFA55495B4802F039FA5448AC2124
:1044A00002F05CF988F31188BFF36F8F6FF00F0093
:1044B0001EE0916891F90E104C4821610133E360D0
:1044C0009368A36001F006FC68B9494A4C49454825
:1044D000AC2302F01CFA45494A4802F018FA444855
:1044E000AC2102F03BF988F31188BFF36F8F0020F5
:1044F00002B0BDE8F0812169DEE791F90E1090F974
:104500000E309942A8BF19466FF07E029142B8BFA3
:1045100011468B4244DD00F0F1FD0546CDE9006710
:1045200032482246414600F0B9FD0028E0D04FF065
:104530002003EFF3118683F31288BFF36F8F2B48AC
:1045400001F0BAFB68B92A4A2A492648812302F0B9
:10455000DEF92649284802F0DAF92548812102F0DF
:10456000FDF8224801F0C6FB236821699C420AD06D
:104570004BB193F90E309942A8BF19466FF07E03F4
:104580009942B8BF1946A06890F90E30994209D1F6
:104590006DB11648314600F07BF96FF00A00A7E7CD
:1045A0000025BBE700F0AAFD0028F2D1F0E70F4894
:1045B00001F090FB68B90E4A11490A48AC2302F099
:1045C000A6F90A490F4802F0A2F90948AC2102F005
:1045D000C5F886F31188BFF36F8FDEE71382000002
:1045E000F18100001076000025820000BC09002047
:1045F000FD7700004F7800006478000094090020E7
:10460000237800003A78000038B50446EFF30583BC
:1046100063B15249524A5348C72302F078F95248CD
:1046200002F075F94E48C72102F098F8A368002BF4
:1046300000F08D804D4DAA68934240F08B80E36876
:104640004BB94B494748464ADF2302F060F94448DA
:10465000DF2102F083F8EFF3058363B13F49454A58
:104660004048FD2302F053F9434802F050F9414815
:10467000FD2102F073F8AB68DB7B012B0CD13F49C5
:104680003C4A3848FE2302F042F93B4802F03FF929
:104690003848FE2102F062F8AA68D37B013BD3734D
:1046A000E368012B05D9013BE36000F02DFE0020FB
:1046B00038BD4FF02003EFF3118583F31288BFF369
:1046C0006F8F2F4801F0F8FA68B92E4A2E49254815
:1046D000812302F01CF92A492C4802F018F92948D4
:1046E000812102F03BF8264801F004FBA068216913
:1046F00090F90E30994201D000F000FD204600F004
:104700007FFEA06058B190F90E20226100228267DE
:1047100000F012FB1A48294600F0BAF8C5E7E0603D
:10472000174801F0D7FA68B9164A19490D48AC2361
:1047300002F0EDF81249174802F0E9F81148AC21EF
:1047400002F00CF885F31188BFF36F8FADE76FF0BF
:104750001500ADE74FF0FF30AAE700BF138200005D
:10476000F1810000107600002582000094090020ED
:104770004A820000618200008C8200008F8200006B
:10478000BC090020FD7700004F780000647800002D
:10479000237800003A78000010B5084C23685BB11C
:1047A000FEF70AFE03462068054A0344BDE81040B0
:1047B0001361002101F060BC10BD00BFCC090020D6
:1047C00094090020F8B504460D464FF02003EFF39E
:1047D000118683F31288BFF36F8F234801F06CFAC0
:1047E00068B9224A22492348812302F090F81E49E1
:1047F000214802F08CF81D48812101F0AFFF1A48D2
:1048000001F078FA1D4B00224FF4004740F2E730E8
:1048100000211A61E7FB040100234FF47A72FBF7D1
:104820006FFC002C164B1BDC1860164B1D60FFF74D
:10483000B3FF0D4801F04EFA68B90C4A12490D4811
:10484000AC2302F064F80849104802F060F8074809
:10485000AC2101F083FF86F31188BFF36F8FF8BDA1
:104860000228B8BF0220DFE7C4090020FD7700005E
:104870004F78000010760000647800009409002052
:10488000CC090020C8090020237800003A780000F5
:1048900038B504460D46E9B9EFF30583D3B9194B92
:1048A000DA699B689A4215D001F014FA68B9164A81
:1048B00016491748C32302F02AF81648214602F089
:1048C00026F81148C32101F049FFBDE83840002017
:1048D000FDF716B8204601F0FDF968B90A4A0B4900
:1048E0000B48AC2302F013F80A48214602F00FF8F7
:1048F0000548AC2101F032FF85F31188BFF36F8FBB
:1049000038BD00BF94090020FD7700002378000027
:10491000107600003A78000038B54FF02003EFF32E
:10492000118583F31288BFF36F8F294801F0C4F912
:1049300068B9284A28492948812301F0E8FF244919
:10494000274801F0E4FF2348812101F007FF2048B8
:1049500001F0D0F9EFF3058363B12249224A1F48E1
:10496000FD2301F0D4FF214801F0D1FF1E48FD21B5
:1049700001F0F4FE1E4CA268D27B012A0CD11D4925
:10498000194A1648FE2301F0C2FF184801F0BFFF84
:104990001548FE2101F0E2FEA268D37B013BD373F0
:1049A0000B4801F097F968B90A4A13490B48AC2340
:1049B00001F0ADFF0649114801F0A9FF0548AC21FF
:1049C00001F0CCFE85F31188BFF36F8F38BD00BFB7
:1049D000C4090020FD7700004F7800001076000029
:1049E0006478000013820000618200008C82000065
:1049F000940900208F820000237800003A7800009C
:104A00000C4B994210B50C460BD10B490B480C4A84
:104A100040F2B53301F07BFF094840F2B53101F0B7
:104A20009DFED4E9003213605A600023C4E90033CC
:104A300010BD00BF50010020E2820000107600008F
:104A4000C0820000836810B504465BB90B490C486E
:104A50000C4A40F2532301F05AFF0A4840F2532116
:104A600001F07CFEA0682146FFF7CAFF637B23F0BC
:104A7000020363730023A36010BD00BF0383000023
:104A800010760000C082000038B502461448154D6B
:104A900002F0A6FA044600B9EC68CAB9AB6863B97B
:104AA0001149124A1248812301F031FF114801F0E7
:104AB0002EFF0E48812101F051FEAB685A7BD206D1
:104AC00006D1A26922B9DA897F2A01D9EB6138BD02
:104AD000AB68A34201D0FFF75FFEEC61F7E700BFD0
:104AE000B4090020940900201A830000C08200004D
:104AF000107600008C82000070B590F90D20437B89
:104B0000002A044606DA03F07F03437301461F4878
:104B1000FFF776FF637B63F07F0363731C4B9C425C
:104B200009D11C491C481D4AB12301F0F0FE1B4865
:104B3000B12101F013FE1A4A1146556A51F8203F7F
:104B40008B4208BF0023002B38BF0023CBB194F960
:104B50000E6093F90E0086420FD0801B00280CDDFA
:104B60005968C4E900310C605C609068031B5842CE
:104B7000BDE870405841FFF787BFAB4201D01B68CA
:104B8000E4E7C4E900152C605462EEE7B4090020A4
:104B900050010020E282000010760000C082000078
:104BA0009409002070B504464FF02003EFF31185FF
:104BB00083F31288BFF36F8F2A4801F07DF868B93C
:104BC000294A2A492A48812301F0A1FE254929487A
:104BD00001F09DFE2448812101F0C0FD214801F033
:104BE00089F8254B254A986811688842194618D1DA
:104BF000FFF7D2FD1B4801F06DF868B91A4A204949
:104C00001B48AC2301F083FE16491E4801F07FFECD
:104C10001548AC2101F0A2FD85F31188BFF36F8F19
:104C200070BD00261660184A1268BAB1C2897F2A80
:104C300014D8427BD20611D1144A90F90E60126842
:104C400096420BDB124A904208D01A69A24202DC5B
:104C5000FFF752FFCCE7121B1A61CBE700230B6171
:104C6000C8E700BFC4090020FD7700004F780000AE
:104C7000107600006478000094090020C00900202C
:104C8000237800003A780000CC090020C8090020F1
:104C90005001002070B590F90D20437B002A044696
:104CA0003EDBDA063CD18569002D39D163F07F0304
:104CB00043731C4B984209D11B491C481C4AB12321
:104CC00001F025FE1A48B12101F048FD19490B46B3
:104CD00053F8200F984218BF0546002D1A462B4660
:104CE0004D6A38BF0023B3B194F90E6093F90E00FA
:104CF00086420CD0801B002809DD5A68C4E90032C6
:104D000014605C60BDE870400020FFF7BDBEAB42A0
:104D100001D01B68E7E7C4E900252C604C62F1E78D
:104D200070BD00BF50010020E2820000107600003C
:104D3000C08200009409002038B504464FF02003DB
:104D4000EFF3118583F31288BFF36F8F174800F0DC
:104D5000B3FF68B9164A17491748812301F0D7FDF8
:104D60001249164801F0D3FD1148812101F0F6FCEB
:104D70000E4800F0BFFF2046FFF78CFF0B4800F005
:104D8000A9FF68B90A4A0E490B48AC2301F0BFFDE0
:104D900006490C4801F0BBFD0548AC2101F0DEFCE2
:104DA00085F31188BFF36F8F38BD00BFC4090020A1
:104DB000FD7700004F780000107600006478000056
:104DC000237800003A78000038B504464FF02003FD
:104DD000EFF3118583F31288BFF36F8F1D4800F046
:104DE0006BFF68B91C4A1D491D48812301F08FFDE6
:104DF00018491C4801F08BFD1748812101F0AEFCD9
:104E0000144800F077FF637B5A0716D4114800F06E
:104E100061FF68B9104A14491148AC2301F077FDCD
:104E20000C49124801F073FD0B48AC2101F096FCCF
:104E300085F31188BFF36F8F38BD23F0040320463C
:104E40006373FFF727FF29460248BDE83840FFF7A4
:104E50001FBD00BFC4090020FD7700004F7800008F
:104E60001076000064780000237800003A78000093
:104E700070B504464FF02003EFF3118683F31288D8
:104E8000BFF36F8F204800F017FF68B91F4A204911
:104E90002048812301F03BFD1B491F4801F037FDED
:104EA0001A48812101F05AFC174800F023FF14F83A
:104EB0000B3C13F0280F10D154F8103CA4F1180546
:104EC00013B12846FFF7BEFD14F80B3C23F0140382
:104ED00004F80B3C2846FFF7DDFE0B4800F0FAFE15
:104EE00068B90A4A0D490B48AC2301F010FD064988
:104EF0000B4801F00CFD0548AC2101F02FFC86F3B6
:104F00001188BFF36F8F70BDC4090020FD770000CA
:104F10004F780000107600006478000023780000CD
:104F20003A78000010B590F90D20437B002A044622
:104F300006DA03F07F03437301460648FFF760FD7E
:104F4000054B9868031B5842BDE810405841FFF7D5
:104F50009BBD00BFB40900209409002038B5044669
:104F60000D46FFF7DFFF637B43F0020363731DB35E
:104F7000174BA5609C4209D116491748174AB1231F
:104F800001F0C5FC1548B12101F0E8FB2B689D42FA
:104F900008BF0023002B38BF00239BB194F90E10EB
:104FA00093F90E20914208D0521A002A05DD5A6862
:104FB000C4E9003214605C6038BD6A68934201D075
:104FC0001B68EAE76B68C4E900531C606C60F3E798
:104FD00050010020E282000010760000C082000034
:104FE0002DE9F04104460D4616461F464FF02003BA
:104FF000EFF3118883F31288BFF36F8F1F4800F01F
:105000005BFE68B91E4A1F491F48812301F07FFCDF
:105010001A491E4801F07BFC1948812101F09EFBD2
:10502000164800F067FE20462946FFF797FF134811
:1050300000F050FE68B9124A15491348AC2301F03C
:1050400066FC0E49134801F062FC0D48AC2101F0EA
:1050500085FB88F31188BFF36F8F7B1C08BFB6F107
:10506000FF3F08D032463B4604F118000A49BDE82C
:10507000F04100F097BEBDE8F08100BFC4090020F8
:10508000FD7700004F780000107600006478000083
:10509000237800003A780000714E000038B5114BBB
:1050A00004469868104B0D4618601146DDE904234C
:1050B000FFF796FF204600F00DFE68B90B4A0C4939
:1050C0000C48C32301F023FC0B48214601F01FFCD0
:1050D0000648C32101F042FB2846BDE83840FCF7F2
:1050E0000FBC00BF94090020C0090020FD7700001C
:1050F00023780000107600003A780000F8B50446E6
:105100000E464FF02003EFF3118783F31288BFF3AD
:105110006F8F3C4800F0D0FD68B93B4A3B493C48A2
:10512000812301F0F4FB37493A4801F0F0FB36489F
:10513000812101F013FB334800F0DCFD637BDA06CC
:1051400076B25CD1A569002D59D103F07F0363735A
:1051500031482146FFF754FC637BA67363F07F035D
:1051600063732E4B9C4209D12D4929482D4AB12306
:1051700001F0CDFB2B48B12101F0F0FA2A490B4692
:1051800053F8200F984218BF0546002D1A462B46AB
:105190004D6A38BF00236BB394F90E6093F90E008B
:1051A000864223D0801B002820DD5A68C4E90032E3
:1051B00014605C600120FFF767FC0124114800F0D7
:1051C00089FD68B9104A19491148AC2301F09FFBC9
:1051D0000C49174801F09BFB0B48AC2101F0BEFACB
:1051E00087F31188BFF36F8F2046F8BDAB4201D023
:1051F0001B68D0E7C4E900252C604C62DAE7A6738F
:105200000024DBE7C4090020FD7700004F78000090
:105210001076000064780000B409002050010020DE
:10522000E2820000C0820000940900202378000080
:105230003A78000070B50446183000F087FE4FF051
:105240002003EFF3118683F31288BFF36F8F254895
:1052500000F032FD68B9244A24492548812301F031
:1052600056FB2049234801F052FB1F48812101F0E1
:1052700075FA1C4800F03EFD94F90D20637B002A6E
:1052800006DA03F07F031C4863732146FFF7B8FB7F
:105290001A4D637BA86843F010036373031B5842E5
:1052A0005841FFF7F1FB0F4800F014FD68B90E4AB2
:1052B00013490F48AC2301F02AFB0A49114801F0B9
:1052C00026FB0948AC2101F049FA86F31188BFF3A7
:1052D0006F8FAB68A34203D1BDE8704001F076BE8A
:1052E00070BD00BFC4090020FD7700004F780000AA
:1052F0001076000064780000B409002094090020B2
:10530000237800003A78000038B54FF02003EFF31F
:10531000118583F31288BFF36F8F2D4800F0CCFC0A
:1053200068B92C4A2C492D48812301F0F0FA28490C
:105330002B4801F0ECFA2748812101F00FFA294CA3
:10534000234800F0D7FCA268D27B72B92649274ACD
:10535000224840F2553301F0DAFA254801F0D7FA35
:10536000224840F2553101F0F9F9EFF3058373B1AA
:1053700020491E4A194840F2563301F0C8FA1C4829
:1053800001F0C5FA194840F2563101F0E7F9A26878
:10539000D37B01330020D373FFF776FB0C4800F07A
:1053A00099FC68B90B4A14490C48AC2301F0AFFAD8
:1053B0000749124801F0ABFA0648AC2101F0CEF9DA
:1053C00085F31188BFF36F8FBDE8384001F0FEBD53
:1053D000C4090020FD7700004F780000107600001F
:1053E000647800009409002041830000C08200001E
:1053F0008C82000013820000237800003A780000BD
:1054000038B504464FF02003EFF3118583F312887B
:10541000BFF36F8F1B4800F04FFC68B91A4A1B4955
:105420001B48812301F073FA16491A4801F06FFAFC
:105430001548812101F092F9124800F05BFC2046EA
:1054400001F0CEFD044628B1FFF7FCFA04F1180084
:1054500000F07CFD0B4800F03DFC68B90A4A0E499B
:105460000B48AC2301F053FA06490C4801F04FFAFF
:105470000548AC2101F072F985F31188BFF36F8FF5
:10548000204638BDC4090020FD7700004F78000099
:105490001076000064780000237800003A7800005D
:1054A000044B002103F12002C3E908220846FFF75C
:1054B00089B900BF94090020F8B5EFF3058373B1F3
:1054C0004149424A424840F2A14301F020FA414892
:1054D00001F01DFA3D4840F2A14101F03FF94FF0C3
:1054E0002003EFF3118683F31288BFF36F8F3A48DE
:1054F00000F0E2FB68B9394A39493548812301F0A7
:1055000006FA3549374801F002FA3448812101F0A2
:1055100025F9354D304800F0EDFBA9684B7B03F0D1
:105520007F034B7305F12000FFF76AFAAC68637BD9
:1055300063F07F0363732D4B9C4209D12C492448AF
:10554000224AB12301F0E3F92048B12101F006F924
:105550002B6A2848696A834208BF0023002B38BFA2
:1055600000235BB394F90E7093F90E20974221D07B
:10557000D21B002A1EDD5A68C4E9003214605C6048
:105580000120FFF781FA144800F0A4FB68B9134A20
:1055900019490F48C32301F0BAF90F49174801F020
:1055A000B6F90E48C32101F0D9F83046BDE8F840FD
:1055B000FCF7A6B98B4201D01B68D2E7C4E9000111
:1055C0000C606C62DCE700BF13820000C082000048
:1055D000107600008C820000C4090020FD770000D6
:1055E0004F780000647800009409002050010020EA
:1055F000E2820000B4090020237800003A7800001D
:105600002DE9F04104460D46EFF3058373B145499A
:10561000454A464840F2BE4301F079F9444801F05A
:1056200076F9414840F2BE4101F098F854EA05038A
:1056300004D1FFF741FF0020BDE8F0816FF00103C6
:105640001E1B4FF0FF3363EB0507012E77F10003BC
:1056500064DA01F0D5FC06194FF02003EFF311884E
:1056600083F31288BFF36F8F324800F025FB68B9CF
:10567000314A32492D48812301F049F92D493048FA
:1056800001F045F92C48812101F068F82D4F294897
:1056900000F030FB2C4BB8681860FFF743FCB8688B
:1056A0002A4922462B46183000F07CFBBA68214874
:1056B000537B43F01003537300F00CFB68B91E4A90
:1056C00023491A48C32301F022F91A49214801F05D
:1056D0001EF91948C32101F041F84046FCF710F9C2
:1056E000BB685B7BDB060ED51B490F4A0F4840F2B7
:1056F000DF4301F00CF90E4801F009F90A4840F2C5
:10570000DF4101F02BF801F07BFC301A66EB06015B
:10571000012871F10003B8BF00208DE76FF001068A
:10572000361B99E713820000C0820000107600004B
:105730008C820000C4090020FD7700004F78000033
:105740006478000094090020C0090020714E000018
:10575000237800003A7800007283000038B50446D0
:105760000D46EFF3058373B11349144A144840F210
:10577000EE4301F0CCF8134801F0C9F80F4840F2AD
:10578000EE4100F0EBFF6B1C08BFB4F1FF3F06D108
:105790000D4B9868FFF74EFD4FF0FF3038BD2046A7
:1057A0002946FFF72DFF4FF47A7380FB0334D80BA3
:1057B00040EA4440F2E700BF13820000C0820000CC
:1057C000107600008C82000094090020014B98683C
:1057D000704700BF940900202DE9F04104464FF0C6
:1057E0002003EFF3118683F31288BFF36F8F4848CD
:1057F00000F062FA68B9474A47494848812301F0F6
:1058000086F84349464801F082F84248812100F079
:10581000A5FF3F4800F06EFA637B1A0717D53C4896
:1058200000F058FA68B93B4A3E493C48AC2301F0C5
:105830006EF837493C4801F06AF83648AC2100F070
:105840008DFF86F31188BFF36F8FBDE8F08123F0E1
:10585000200242F00801D20942D16173A36813B15A
:105860002046FFF7EFF804F1180000F06FFB04F199
:1058700058074FF00008A56DBD4201D0002D39D169
:105880000120FFF701F9294B9B68A342C7D1EFF331
:105890000583002BC3D11E4800F01CFA68B91D4ACD
:1058A00020491E48C32301F032F819491E4801F06F
:1058B0002EF81848C32100F051FF3046FCF720F8BD
:1058C0001B4A1C49154840F2096301F020F81A48A8
:1058D00001F01DF8164840F2096100F03FFF9EE715
:1058E00003F05F0343F00803144863732146FFF796
:1058F00087F8B3E72846FFF7A5F805F1180000F090
:1059000025FBC5F878802846FFF7C4F9B3E700BF48
:10591000C4090020FD7700004F78000010760000D9
:1059200064780000237800003A7800009409002091
:10593000C0820000387F0000B2830000B40900205C
:1059400038B504464FF02003EFF3118583F3128836
:10595000BFF36F8F144800F0AFF968B9134A1449C8
:105960001448812300F0D3FF0F49134800F0CFFF04
:105970000E48812100F0F2FE0B4800F0BBF92046F2
:10598000FFF73EFD48B100228267FFF7D5F92946AF
:105990000548BDE83840FEF77BBFD4E902329A42A1
:1059A00018BF0133A360F2E7D0090020FD770000A3
:1059B0004F7800001076000064780000F7B50446C8
:1059C00016461F46EFF305837BB156EA07030CD05A
:1059D0003549364A3648792300F099FF354800F0BA
:1059E00096FF3248792100F0B9FE4FF02003EFF323
:1059F000118583F31288BFF36F8F2F4800F05CF995
:105A000068B92E4A2E492A48812300F080FF2A498E
:105A10002C4800F07CFF2948812100F09FFE264899
:105A200000F068F9A368D3B1013B2348A36000F0FC
:105A300051F968B9214A24491D48AC2300F067FF99
:105A40001D49224800F063FF1C48AC2100F086FE8F
:105A500085F31188BFF36F8F002003B0F0BD56EAC5
:105A6000070318D1144800F035F968B9134A1649EC
:105A70000F48AC2300F04BFF0F49144800F047FFDC
:105A80000E48AC2100F06AFE85F31188BFF36F8FDA
:105A90006FF00F00E1E7CDE900672246294606488E
:105AA000FFF7FCFAD9E700BFF4830000D4830000BD
:105AB000107600008C820000D0090020FD770000E5
:105AC0004F78000064780000237800003A780000E6
:105AD0002DE9F04385B00446DDF83C80B8F10F0FA6
