:10000000A0130020091800008D610000F517000002
:10001000F5170000F5170000F517000000000000BC
:1000200000000000000000000000000011160000A9
:10003000F517000000000000BD15000001310000B0
:100040007515000075150000751500007515000088
:100050007515000075150000751500007515000078
:100060007515000075150000751500007515000068
:100070007515000075150000751500007515000058
:100080007515000075150000751500007515000048
:100090007515000075150000751500007515000038
:1000A0007515000075150000751500007515000028
:1000B0007515000075150000751500007515000018
:1000C0007515000075150000751500007515000008
:1000D00075150000751500007515000075150000F8
:1000E00075150000751500007515000075150000E8
:1000F00075150000751500007515000075150000D8
:1001000053B94AB9002908BF00281CBF4FF0FF317E
:100110004FF0FF3000F06CB9ADF1080C6DE904CE82
:1001200000F006F8DDF804E0DDE9022304B07047D2
:100130002DE9F047089E0D4604468E46002B40F000
:1001400082808A42174646D9B2FA82F24AB1C2F197
:10015000200105FA02F320FA01F1974041EA030E6B
:1001600094404FEA1748230CBEFBF8FCB9B208FBD9
:100170001CEE43EA0E430CFB01F098420AD9FB182F
:100180000CF1FF3580F01681984240F21381ACF1FA
:10019000020C3B441B1AA4B2B3FBF8F008FB10336B
:1001A00044EA034400FB01F1A14209D93C1900F1E2
:1001B000FF3380F00181A14240F2FE8002383C44CE
:1001C000641A40EA0C4000211EB1D4400023C6E965
:1001D0000043BDE8F08702B9FFDEB2FA82F2002ADE
:1001E0004FD1CB1B4FEA174E1FFA87F80121B3FB03
:1001F000FEFC250C0EFB1C3345EA034508FB0CF303
:10020000AB4207D97D190CF1FF3002D2AB4200F2AC
:10021000E7808446ED1AA3B2B5FBFEF00EFB105545
:1002200043EA054408FB00F8A04507D93C1900F152
:10023000FF3302D2A04500F2D7801846A4EB080491
:1002400040EA0C40C0E78B4208D9002E00F0AF8096
:100250000021C6E900050846BDE8F087B3FA83F13E
:1002600000294BD1AB4202D3824200F2B780841AFC
:1002700065EB030301209E46002EAAD0C6E9004E7E
:10028000A7E7C2F1200C01FA02F3974020FA0CF024
:100290004FEA174E21FA0CFC1843BCFBFEF1050C8B
:1002A0000EFB11CC1FFA87F845EA0C4501FB08F359
:1002B000AB4204FA02F409D97D1901F1FF3C80F048
:1002C0008B80AB4240F2888002393D44EB1A85B204
:1002D000B3FBFEF00EFB103345EA034500FB08F3C9
:1002E000AB4207D97D1900F1FF3C71D2AB426FD907
:1002F00002383D44EB1A40EA014178E7C1F1200C95
:100300008B4022FA0CF71F4320FA0CF405FA01F394
:100310004FEA174E25FA0CF51C43230CB5FBFEF9EA
:100320001FFA87F80EFB195543EA054509FB08FA41
:10033000AA4502FA01F200FA01F308D97D1909F180
:10034000FF3047D2AA4545D9A9F102093D44A5EBA2
:100350000A05A4B2B5FBFEF00EFB105544EA0544B5
:1003600000FB08F8A04507D93C1900F1FF352DD254
:10037000A0452BD902383C4440EA0940A4EB0804CC
:10038000A0FB02894C45C6464D4619D316D05EB136
:10039000B3EB0E0264EB050404FA0CFCCA404CEA11
:1003A0000202CC40C6E900240021BDE8F0873146B6
:1003B00030460EE7AC46EDE6184601E74345E6D287
:1003C000B8EB020E69EB07050138E0E72846D3E7F2
:1003D00060468FE78146BAE7614677E708464BE714
:1003E000ACF1020C3D4415E702383C4426E700BF5F
:1003F000704700BF70B50E480E4E05F0A6FE0E48C1
:1004000005F0A3FE002404F10A01204605F0C2FD18
:10041000651C034604F10B022946304605F095FEA3
:100420004FF48040002104F0B5FD2C46EBE700BFFF
:10043000B86A0000026B0000DC6A00002DE9F04F92
:1004400091B08B46029092461C4600259AF8000017
:1004500008B928465EE325280AF1010707D0029B68
:10046000594698470028C0F25583013510E21822FA
:1004700000210AA805F0B9FE9AF80130252B78D0A2
:1004800000229446164696461046394617F8013B18
:100490002B2B00F09D8000F29480202B00F09B809D
:1004A000232B00F09A8028B19DF8300040F0040022
:1004B0008DF83000BEF1000F05D09DF8300040F0FF
:1004C00008008DF830002EB19DF8300040F010008B
:1004D0008DF83000BCF1000F05D09DF8300040F0E1
:1004E00020008DF830002AB19DF8302042F0400203
:1004F0008DF830209DF8302002F04400442803D1CC
:100500006FF386128DF830209DF830202A2B42F0B0
:1005100080028DF830207BD19DF8312042F001021D
:100520004B1C8DF831201A782E2A9DF831200CBFF3
:100530000121002161F341028DF8312074D15A78F4
:100540002A2A6AD0013300210A26184610F8012B06
:10055000A2F13007092F40F28E809DF830200E91D5
:10056000C2F3400040EAD17161F341028DF83020BE
:100570005AE00AF102078DF833309DF83130D9077F
:1005800040F1498154F8049BB9F1000F07DA9DF856
:10059000302042F004028DF83020C9F100095A07DA
:1005A00040F1428154F8048BB8F1000F80F2418190
:1005B0009DF831306FF341038DF831304FF0FF3843
:1005C00037E12D2B0CD0302B7FF46DAF01225CE78F
:1005D0004FF0010E59E7012657E74FF0010C54E7A1
:1005E000012052E70CFB0202303A33461E4616F851
:1005F000010BA0F13007092FF4D9994293D09DF84F
:1006000030100D92D20F62F341018DF830108AE75D
:100610000B4600224FF00A0CE8E79DF8312042F02B
:1006200004028DF8312002331F4617F8012B6C2A83
:1006300041D025D8682A2BD06A2A46D04C2A4CD0E3
:100640001F4617F8012B9DF831308DF83320782A9A
:1006500000F2D980572A4DD8412A03D0453A022AC0
:1006600000F2D1809DF83230042262F302038DF84B
:10067000323001239EE006FB01213039034664E756
:10068000742A26D07A2ADBD19DF8313006220DE07B
:100690005A78682A9DF8312006D1012161F3C602FB
:1006A0008DF831209F1CCCE71346022262F3C6036B
:1006B0008DF83130C5E75A786C2A9DF8312001D188
:1006C0000421EBE713460322F0E79DF831300522C1
:1006D000ECE79DF831300722E8E7BDF8303023F42D
:1006E000F04323F0020343F4804343F00203ADF8E8
:1006F0003030A6E7A2F15801202900F2848001A041
:1007000050F821F0C90700000708000007080000A2
:10071000070800000708000007080000070800009D
:100720000708000007080000650600000708000031
:10073000C907000089070000650600006506000083
:100740006506000007080000890700000708000090
:10075000070800000708000007080000D107000094
:10076000C9070000ED0700000708000007080000A7
:10077000ED07000007080000C90700000708000097
:1007800007080000C90700009DF83210012003F09F
:10079000780360F30201402B8DF8321002BF9DF800
:1007A000301041F001018DF83010632A31D1003B47
:1007B00018BF01239DF83020C2F340010B4363F3BF
:1007C00041028DF83020D8E69DF832100220DEE795
:1007D0009DF8322003F07803A3F14000032161F378
:1007E000020243428DF832204341E3E79DF8322074
:1007F000032113F0780F61F302028DF8322014BF49
:1008000001230023D6E79DF8303043F001038DF833
:1008100030300023CEE79DF93020002AB4BFDDF848
:1008200034904FF0FF39BAE69B077FF5C7AEDDF88D
:1008300038809DF831200023CDE90D339DF832300A
:1008400003F00703012BC2F3C30236D1D31E042BDE
:1008500020D8DFE803F00307071F1F0054F8040B3C
:10086000C11704E0073424F00704F4E80201CDE9DD
:100870000A019DF8303013F0030654D002983B462D
:100880005246594605F0DAFB0028C0F24381054480
:10089000BA46DBE554F8040B012A4FEAE071CDE9D2
:1008A0000A0105D19DF828300A9300230B93E0E755
:1008B000022ADED1BDF92800D2E7022B23D1D31EB4
:1008C000042B13D8DFE803F0030A0A121200206891
:1008D0000A900021231D0B911C46CAE7073424F01F
:1008E0000703F3E80201CDE90A01F5E754F8043BF8
:1008F0000A93012A4FF000030B93D3D0022AB8D1F8
:10090000BDF82830D0E7042B07D1073424F00704C2
:10091000F4E80201CDE90A01ABE7032B04BF54F868
:10092000043B0A93A5E79DF833007828B0D86228E5
:1009300022D825283FF493AD5828A9D10DF12603DC
:100940000093DDE90A0104AB0CAA05F02CFB8246FA
:10095000B8F1000F0DF126000CDB9DF83020A0EB64
:100960000A036FF3861298458DF8302002D9A8EB60
:1009700003030D9380463DE06338152888D801A114
:1009800051F820F0050A0000690A000091080000F3
:10099000910800009108000091080000690A000019
:1009A00091080000910800009108000091080000E3
:1009B000C70A0000950A0000990A0000910800008B
:1009C00091080000DD09000091080000950A000070
:1009D0009108000091080000950A0000B8F1000F8E
:1009E000DDF828A00ADB4146504605F0EAFB0AEB99
:1009F00000080026BAF1000F0CD149E7504605F077
:100A0000D9FBF4E70A9B8DF8103000260DF1110890
:100A10000DF1100AA8EB0A0306B101339DF832204C
:100A2000D0066BD5023352060D9948BF0E9A0B447F
:100A300048BF9B18B9F1000F79DD9DF83020A9EB74
:100A40000309C2F380030393530770D4500664D59F
:100A500046B1029B59463046984700285ADB039B13
:100A600001351E46302359E01E0711D413F010063D
:100A700018BF2026DDE90A23002A73F10001BFF622
:100A80005DAF524263EB4303CDE90A232D2655E7C0
:100A90002B26EFE7002651E70A9848B30DF126030D
:100AA00000930CAA04AB002105F07DFABDF83230AA
:100AB00003F0EF0343F4F04343F010038246ADF834
:100AC0003230002644E70A9B072A3FF6E1AEDFE812
:100AD00002F00D04060D08080D0D1D70D8E61D80EE
:100AE000D6E62846E917C3E90001D1E61D60CFE646
:100AF000DFF8C4800646A8F1050A8BE7110748BF56
:100B0000013390E7184603935946029B9847002803
:100B1000039B04DA11B0BDE8F08F20234D444A4610
:100B2000002AA5EB090109F1FF39EBDC0D4636B1CE
:100B3000029B5946304698470028EBDB01359DF86B
:100B40003230D90601D41A0706D5029B5946302007
:100B500098470028DEDB01359DF83230DB0607D5EB
:100B60009DF83300029B594698470028D2DB013597
:100B70000D9E2E44731B002B16DC029843465246F2
:100B8000594605F05BFA0028C4DB0544A944A9EBEB
:100B90000503002B7FF77CAE029B59462020984727
:100BA0000028B7DB0135F2E7029B59463020984711
:100BB0000028AFDB0135DDE71A6B000038B544686B
:100BC000816004F00304032C054602D02CB1002000
:100BD00000E0006800236B6038BD054A05490648FF
:100BE000452305F0B2FA0248452105F0D5F9EEE7B4
:100BF0001B6B0000396C00003E6B0000014805F0E3
:100C000037B800BF0869000008B5D0B14368042BAD
:100C100011D100220368BFF35B8F53E8001F012945
:100C200003D143E800200028F7D1BFF35B8F0748CA
:100C300008BF104608BD3BB1006803F001F9002071
:100C4000F8E76FF4E040F5E70148F3E7E98FFFFFCD
:100C5000EA8FFFFF10B5044618B90D4B0D485B68CD
:100C60009847616808290DD031F004030AD011F0CB
:100C7000020108D00848214602F07EFF00232360CD
:100C80000023636010BD2068142205F0AEFAF7E778
:100C9000600000205B6B00005002002010B504468D
:100CA00018B9164B16485B6898476368042B23D025
:100CB000082B21D0CBB92368BBB912484FF0FF32C3
:100CC0004FF0FF33214602F0EBFE08B923681BB951
:100CD0000A4B0D485B68984720681422002105F0F4
:100CE00084FA636843F002036360206805F079FCCE
:100CF000636843F00103636010BD00BF6000002023
:100D00005B6B000050020020816B000008B508B347
:100D10004368042B10D101220368BFF35B8F53E8B3
:100D2000001F002903D143E800200028F7D1BFF3BA
:100D30005B8F0BD1002008BD53B100684FF0FF322C
:100D40004FF0FF3302F07CFF0028F3D00348F2E7B6
:100D50000348F0E76FF4E040EDE700BFE98FFFFFE5
:100D6000EA8FFFFF08B5064906484023142205F024
:100D70001CFCBDE808400449044804F0DBBF00BF88
:100D8000700200205002002020690000106900005D
:100D90002DE9F04FB0F81C9085B019F0080F04460B
:100DA000039222D001290CBF49F0100949F0200913
:100DB000A0F81C901434204604F0A8FB68B99F4AA0
:100DC0009F49A048AC2305F0C0F99F48214605F093
:100DD000BCF99A48AC2105F0DFF8039B83F3118836
:100DE000BFF36F8F05B0BDE8F08F984FDFF85482E6
:100DF00009F00709022906D1204605F04BF9002821
:100E0000D8D0012868D1D4F818B0A38BBBF1000F5B
:100E10000ADA0026256823F00703C4E9006643F0D8
:100E20000103A383019627E003F00702511F012964
:100E300034D8002123F00703062A25689BB2C4E9B1
:100E400000110CD18D422A4638BF0A462AB1E18BE7
:100E500012680131E183002AF8D143F00203A38331
:100E6000204605F017F906460028DBD0A38B43F097
:100E70002003A38300230193A38B03F007024A45B9
:100E8000029203D0A268002A40F0F0801DB9019AB6
:100E9000002A00F036814FF00009E9E0042A0ED163
:100EA00023F007039AB2A283204605F0F3F8054623
:100EB00018B142F02002A28300250195DCE74046EC
:100EC000634940F21B133A4605F03FF940F21B110B
:100ED000384605F061F8EFE7032835D1B9F1000F86
:100EE0000BD05C4940464FF4AB733A4605F02DF900
:100EF0004FF4AB71384605F04FF823685BB956499B
:100F0000404640F257133A4605F01FF940F2571198
:100F1000384605F041F823691B6801935BB94F49D6
:100F200040464FF4AD733A4605F00FF94FF4AD71FA
:100F3000384605F031F8A38B23F0070343F006038E
:100F4000A3830025AB4697E7042832D1B9F1020FFD
:100F50000BD04349404640F25D133A4605F0F5F8A0
:100F600040F25D11384605F017F8E38B5BB13D495F
:100F700040464FF4AF733A4605F0E7F84FF4AF71CF
:100F8000384605F009F823695B6801935BB933497A
:100F9000404640F261133A4605F0D7F840F261113D
:100FA000384604F0F9FFA38B23F0070343F0040352
:100FB000C6E7052832D1B9F1010F0BD02A494046C6
:100FC0004FF4B2733A4605F0C0F84FF4B2713846A8
:100FD00004F0E2FF23685BB91F49404640F2651305
:100FE0003A4605F0B2F840F26511384604F0D4FFF5
:100FF00023699B6801935BB9184940464FF4B47369
:101000003A4605F0A2F84FF4B471384604F0C4FF34
:10101000A38B23F0070343F0050391E70C4940F24B
:101020006B133A46404605F090F8002540F26B11EC
:10103000384604F0B1FF019584E700BF516C000011
:10104000776C00003E6B00008E6C0000AE6B000001
:10105000396C0000D06B0000DC6B0000FF6B0000FF
:10106000166C00002C6C00003B6C00004FF0010976
:1010700043F0080304F1140AA383504604F046FA2F
:1010800068B93A4A3A49AC23404605F05EF8394817
:10109000514605F05AF83548AC2104F07DFF039B1A
:1010A00083F31188BFF36F8FB9F1000F38D1002D92
:1010B0004BD1019B13B13049204698474FF0200394
:1010C000EFF3118B83F31288BFF36F8F5046CDF887
:1010D0000CB004F00DFA68B9244A2849812340462F
:1010E00005F033F82648514605F02FF81F488121B6
:1010F00004F052FF504604F019FAA38B23F00803C2
:10110000A383A38BDA0628D523F01003A383012140
:10111000B4F81C9009F0070900297FF46BAE49E68A
:10112000A1680029C3D00B68029A002B38BF0023A6
:1011300099464B6820461E465B46B047B9F1000F02
:10114000B5D0D9F800304946EEE72946029A2D6815
:101150005B46204604F0BAFFA9E713F020011EBF4A
:1011600023F02003A3830221D2E700BF516C0000CB
:10117000776C00008E6C000085110000A36C0000ED
:10118000B86C0000F8B504460D4600F114064FF0A7
:101190002003EFF3118783F31288BFF36F8F30467C
:1011A00004F0A6F968B90C4A0C490D48812304F0F3
:1011B000CCFF0C48314604F0C8FF0748812104F0F9
:1011C000EBFE304604F0B2F9A5613A462046012113
:1011D000BDE8F840FFF7DCBD516C0000A36C0000D7
:1011E0003E6B0000B86C00002DE9F04704460F4646
:1011F00004F082FF051E5EDB04F114094FF02003AA
:10120000EFF3118A83F31288BFF36F8F484604F01F
:101210006FF968B9384A39493948812304F095FF94
:101220003848494604F091FF3348812104F0B4FE68
:10123000484604F07BF9E38BA28B4FF6FF718B429B
:1012400002F0070650D0022E24D10133E383354645
:101250004FF00108484604F059F968B9264A2A496E
:101260002748AC2304F071FF2848494604F06DFF7D
:101270002148AC2104F090FE8AF31188BFF36F8FF0
:10128000B8F1000F17D0002332463946204604F04B
:101290001DFF10E0930701D0062E0FD100233B6005
:1012A0006368F3B9C4E900773546FEB952460221B6
:1012B0002046FFF76DFD2846BDE8F087052E18D0C3
:1012C000012E0BD012490E48124A40F2C91304F005
:1012D0003CFF104840F2C91104F05EFE6FF00405B7
:1012E00004E01F606760DFE76FF00A054FF0000859
:1012F000B0E76FF08505F9E7516C0000A36C0000C2
:101300003E6B0000B86C0000776C00008E6C000033
:101310003B6C0000AE6B0000F8B505464FF02003B3
:10132000EFF3118683F31288BFF36F8F1E4804F02A
:10133000DFF868B91D4A1E491E48812304F005FFE5
:1013400019491D4804F001FF1848812104F024FECA
:10135000154804F0EBF8194B1C68002C38BF00242A
:101360005CB1174FD4E90132002D08BF13460BB111
:10137000387898472468002CF4D10B4804F0C6F85C
:1013800068B90A4A0F490B48AC2304F0DEFE06494F
:101390000D4804F0DAFE0548AC2104F0FDFD86F3AB
:1013A0001188BFF36F8FF8BD70070020516C0000EB
:1013B000A36C00003E6B0000B86C000074070020B6
:1013C0007C070020776C00008E6C00001FB50F4B6F
:1013D0001A68BAB901221A600D4A07CA01AB83E83C
:1013E00007000C4A4AB193E8070004F01AFF0020F6
:1013F00005B05DF804EBFFF78FBF82F31188BFF3F0
:101400006F8FF4E705B05DF804FB00BF20000020FB
:101410007C07002023620000F0B589B06E460146CB
:101420000546304604F08AFE96E807001F4C84E823
:1014300007002078002837D01D4B002018606B1C57
:101440001DD091420CD21B491B4A1C48CA2304F0F0
:101450007CFE1B4804F079FE1748CA2104F09CFD6D
:10146000A7681848184A4FF4004600210023E6FBFD
:101470000701FEF745FE0121281A04F019FA02F0CF
:1014800067FE0120FFF748FF94E8070005AB83E8FB
:1014900007000E4A1AB193E8070004F0AFFEFFF709
:1014A00095FF03F04DFB207809B0F0BD7C070020CC
:1014B00020000020466D0000D06C00003E6B000054
:1014C000866D00003F420F0040420F00FD610000AA
:1014D0000B6801330B60014B1B6818472400002088
:1014E000014B1860704700BF2400002007B50B4671
:1014F000002102460191034801A9FEF79FFF03B0B6
:101500005DF804FBD114000008B504464FF020023A
:10151000EFF3118382F31288BFF36F8F05F019F890
:10152000204600F087FC034804F00FFE00F00AF8A4
:10153000FCE700BFAB6D0000014910220A60704754
:1015400010ED00E072B6404080F31188BFF36F8F5A
:10155000BFF34F8F30BF62B6BFF36F8F704700BFCE
:1015600072B6494081F3118820BF80F3118862B6BA
:10157000704700BF01B572B60B4A906900281EBFC4
:101580000021916105F00AF862B6EFF30580A0F141
:1015900010004FEAC0000549014409C99847BDE859
:1015A0000140034908470000600900204C67000023
:1015B000D917000030BFFFF7FDBF00BF12498A688E
:1015C0004FF030001044EFF3098C80E8F01F20202A
:1015D00080F31288BFF36F8F0C4F4FF00066CA691B
:1015E0008A603E60506F0023536780F3118804B512
:1015F000104600F0E7FABDE8044002F1300090E840
:10160000F01F8CF3098870476009002004ED00E0AA
:101610001EF0040F0CBFEFF30880EFF3098081691F
:1016200011F8021C0229FFD001B504F0A7FD01BD8D
:1016300043B2002B08DB012200F01F0002FA00F089
:101640005B09024A42F82300704700BF00E100E056
:10165000054B420900F01F0053F82220012303FA32
:1016600000F01040704700BF00E100E070B54C1C76
:10167000072C05460E460FD9114A12491248582325
:1016800004F063FD1148314607232A4604F05DFD4E
:101690000B48582104F080FC6BB2002BACBF03F167
:1016A00060430B4B4FEA4414B8BF05F00F05E4B29A
:1016B000AABF03F561435C5583F8004370BD00BFCA
:1016C000D46D00000A6E00003E6B0000256E000025
:1016D00014ED00E00B4A08B50B4B22F07F029A6034
:1016E000BFF34F8FBFF36F8FD3F8882022F47002BF
:1016F000C3F8882002F01CF904F046FA00F0F6F96D
:1017000002F020F90000000000ED00E0094A0A495B
:10171000936809689967094958674B6843F0805393
:101720004B60002383F31188BFF36F8F9368986F2A
:10173000704700BF600900202C6A000000ED00E047
:1017400042F8203C009B42F81C3C0A49019B42F8AD
:10175000183C029B42F8143C21F001014FF08073C9
:1017600042F8043C42F8081C0023203A0265436713
:10177000704700BF656100000B4A0346906890B156
:1017800013F1160F406E05D0A0F120029A4206D840
:10179000834204D281422CBF0021012100E00021BC
:1017A000002908BF002070476009002008B5094BD8
:1017B00098600D46144600F005FA204685F3098826
:1017C000002163B681F31188BFF36F8F00220023DD
:1017D00004F0C8FC60090020044B9968D86988426D
:1017E00003D003494FF080520A607047600900201F
:1017F00004ED00E0EFF30880EFF3098101B57246D4
:1018000000F0AEF801BD00BF002080F31488BFF3E4
:101810006F8F04F01DFF00200D490860BFF34F8F4C
:101820000C4880F3088800F07DF9202080F31188AF
:1018300009484FF40261401880F30988EFF31480DF
:101840000221084380F31488BFF36F8FFFF742FF34
:1018500094ED00E0A013002020150020234B70B56C
:1018600015469A6A9A6A9A6A044690071AD5586B7E
:101870009A6A120616D519B19A6A22F080029A6203
:101880009A6A9A6A9A6AD6060FD49B6A99070CD408
:101890000024164A936A43F0FF03936200232B70DF
:1018A000204670BD6FF01500EAE7104E73681A0508
:1018B000EED52146FFF760FF044618B180F3098892
:1018C0000224E6E7B36ADB06E2D5094A09490A4879
:1018D00040F2491304F039FC084804F036FC04488F
:1018E00040F2491104F058FBD3E700BF00ED00E0DF
:1018F000656E00009F6E00003E6B0000E96E000008
:101900000D4B9A6A9A6A9A6A920508D59A6B9A6AF6
:10191000120404D518B19A6A22F400429A62064B66
:101920009A6A9A6AD20558BF9A6A9A6A002042F463
:101930007F429A620870704700ED00E0074B9A6A98
:101940009A6A9A6A9A6A9A6A9A6A9A6A6FEA0242E2
:101950006FEA12429A620020704700BF00ED00E07B
:1019600070B5544B5C688AB00D46C4F30804002679
:1019700086F31188BFF36F8F02F07F43B3F17F4F7F
:1019800008D102F00C03082B04D012075CBF0546F7
:1019900001267DB9484A4949494840F2F23304F0EA
:1019A000D4FB484804F0D1FB434840F2F23104F044
:1019B000F3FA002500238DF80730E31E032B72D8BD
:1019C000DFE803F002696D493A4BDC6A14F0020467
:1019D00069D1DA6A002A18DBDB6A5B004ED5AB6995
:1019E00033F8022C4DF602739A420DD003F1604396
:1019F00003F626631B780BB30DF10702012128467D
:101A0000FFF72CFF044600E02C689DF807309BB9D7
:101A10002022294602A804F0DDFB099B002E44D0B9
:101A2000C3F3080222B96FEA53236FEA43230993F1
:101A300002A9204604F0A0FB0AB070BD224B1B781F
:101A40002BB10DF107010120FFF75AFFDAE71F4B19
:101A50001B889BB213B1FFF771FFD3E71C49164AED
:101A6000174840F2C32304F070FB1A4804F06DFBE2
:101A700040F2C321104804F08FFAC6E714490E4A19
:101A80000F4840F2C72304F060FB134804F05DFBED
:101A900040F2C721EEE70DF107020021AFE70DF19B
:101AA00007010020D0E70024AFE723F4FF7323F001
:101AB0000103BCE700ED00E0656E00000C6F000064
:101AC0003E6B00001F6F000029ED00E02AED00E0F2
:101AD000396C00005D6F0000816F0000024A53699D
:101AE00043F010035361704700ED00E00448002309
:101AF0002021C2180133302B82F80013F9D170472E
:101B000000E100E0064A11680023C1F307211846EE
:101B10008B4200D17047936010610133F8E700BF3A
:101B200090ED00E008B572B6002383F31388FFF749
:101B3000E9FF144B4FF0FF32C3F88020C3F8842034
:101B4000C3F88820C3F88C20C3F89020C3F89420F1
:101B5000C3F89820C3F89C20C3F88021C3F88421DF
:101B6000C3F88821C3F88C21C3F89021C3F89421CD
:101B7000C3F89821C3F89C2162B6BFF34F8FBFF31F
:101B80006F8F08BD00E100E0064B9B68834207D1E0
:101B9000EFF3058323B1044A536843F08053536045
:101BA00003F036BA6009002000ED00E0024B034A62
:101BB0000348012100F068B8000004200000002064
:101BC00034690000426E054B203A1A60044A202115
:101BD000C3E901121846012100F07EB888070020F1
:101BE00000000B15F0B51E4F00268E4201DB10469B
:101BF000F0BD446884B353B104F1FF3C14EA0C0F08
:101C000018D11F2C16D905681CEA050F12D1202CFB
:101C10000568D0F808C0D2B20FD9B4F1004F0ED881
:101C2000013CB4FA84F4C4F11F046400072A4CEAAE
:101C3000040406D96FF01502D9E70824F6E73E241C
:101C4000F4E725F01F05154345F0100544F00104A5
:101C5000BA60FD6001323C6101360C30C5E700BF5F
:101C600090ED00E0034B05225A60BFF34F8FBFF3A6
:101C70006F8F704790ED00E0BFF35F8F014B002244
:101C80005A60704790ED00E038B50E4D01232A7878
:101C90000C46FFF7A7FF2870163011D140F2111340
:101CA000094A0A490A4804F050FA2146094804F052
:101CB0004CFABDE83840044840F2111104F06CB908
:101CC00038BD00BFC0090020B16F0000396C0000B2
:101CD0003E6B0000E86F000010B5124A0023127836
:101CE0000C46FFF77FFF10F1160F08D00E4B0022B5
:101CF000072800DD10BD98601A610130F8E70B4A33
:101D00000B490C484FF4987304F01FFA21460A4817
:101D100004F01BFABDE8104004484FF4987104F039
:101D20003BB900BFC009002090ED00E0B16F00009A
:101D3000396C00003E6B000014700000254910B59E
:101D40000C68082C13D94FF4A473234A2349244860
:101D500004F0FBF923480822214604F0F6F91E4856
:101D60004FF4A47104F018F94FF0FF3010BDFFF7E5
:101D700083FF48681C490022944200F10C0019D1ED
:101D80001A4B1C70FFF76EFF0B68C3F30723082B79
:101D90000ED01749104A12484FF4D47304F0D5F905
:101DA000144804F0D2F90C484FF4D47104F0F4F85C
:101DB0000020DBE78A6050F80C3C23F01F0313433C
:101DC00043F01003CB6050F8043C43F001030B6177
:101DD0000132D1E740690000B16F0000396C0000AA
:101DE0003E6B00004170000090ED00E0C009002053
:101DF00075700000C5700000014B1860704700BF8F
:101E0000280000204FF02003EFF3118283F31288A3
:101E1000BFF36F8F06490123C1F840354FF0804171
:101E2000C1F8783582F31188BFF36F8F00207047B7
:101E300000E001404FF08043C0B2C3F81C05BFF37F
:101E40004F8F0549054BCA6802F4E0621343CB602B
:101E5000BFF34F8F00BFFDE700ED00E00400FA057F
:101E600020B1034B800143F001031847704700BFC6
:101E7000006900002DE9F041104C071BC7F347171C
:101E80004FF00C0808FB07F8064608F148000D461D
:101E90002044402104F0D0F9011E09DB084B4444E2
:101EA000C4E91035074B53F83730BDE8F041184707
:101EB00030462B46BDE8F041184700BFA40700207C
:101EC0009B6200007469000038B5CCB2012C054655
:101ED00009D9094909480A4A7E2304F036F9084815
:101EE0007E2104F059F82B690C2104FB0134A06C0D
:101EF00000F0070038BD00BF327100003E6B0000EB
:101F0000F5700000F8B5CCB2012C076905461646FD
:101F10000BD918491848194A40F2531304F015F91F
:101F2000164840F2531104F037F84FF02003EFF356
:101F3000118283F31288BFF36F8F0C2303FB0471AC
:101F4000896C11F0C00101D08E4210D103FB0473E3
:101F500001219964002082F31188BFF36F8F28B9A3
:101F6000696801EBC404636898470020F8BD4FF02E
:101F7000FF30F0E7327100003E6B0000F5700000AA
:101F800070B50D460649411A0446491105484022DC
:101F9000FFF7B8FF2B4601462046BDE870401847C2
:101FA000A4070020BC660000002270B50121044691
:101FB0001046FFF75BFB0020FFF73AFB0F4801F0EC
:101FC000E7F80F4B984215D101F006F926690D4943
:101FD000304604F0A0F800280BDB0125B564246925
:101FE000084904F1200004F096F8002801DB65653B
:101FF000002070BD6FF00400FBE700BF3D20000033
:102000000000AD0B8469000001460C2309484B43D6
:1020100070B5C418D4E9105600224833226418441D
:1020200004F028F92DB132462B460348BDE8704034
:10203000184770BDA4070020BC660000012808B541
:1020400006D0032808D0A8B9104B9B6C5B071BD1A6
:10205000BDE80840FFF7D8BF0D490E4A0E4840F2D0
:10206000662304F072F840F26621BDE80840094892
:1020700003F092BF0649074A074840F26A2304F07A
:1020800064F840F26A21F0E708BD00BFA407002011
:10209000396C0000F57000003E6B000008B54FF091
:1020A0002003EFF3118183F31288BFF36F8F124A7D
:1020B000136843F0020013F0010310600CD04FF0DE
:1020C0008042D2F80C34D2F80C2413F0010303D070
:1020D0000A4804F0CFF8012381F31188BFF36F8F12
:1020E00023B1BDE808400020FFF78EBFBDE80840DF
:1020F000012001F091B800BFFC070020EC07002090
:10210000094BBFF35B8F53E8002F22F0020143E835
:1021100000100028F7D1BFF35B8FD30702D4012052
:1021200001F0CEB8704700BFFC0700201FB50022A9
:102130000123CDE90223094ACDF800D06B46CDF842
:1021400004D004F0BCF8002805DB4FF480420023E3
:10215000684603F04FF805B05DF804FBB962000073
:102160002DE9F8434949BFF35B8F0546012251E849
:10217000003F41E800200028F9D1BFF35B8FA3B9ED
:10218000434944484B60CB608A60FFF72DF8002834
:102190000BDA41494148424A40F2262303F0D5FF79
:1021A0003F4840F2262103F0F7FEADB36B1E012B32
:1021B00056D8012D07D14FF08043D3F81C3403F0DB
:1021C0000303012B28D004F033FA044618B9354B29
:1021D0001B78002B52D14FF02003EFF3118683F3CD
:1021E0001288BFF36F8F01242F4FDFF8C480DFF810
:1021F000C4904FF08042D2F81834D2F81824D20399
:102200000CD503F00303012B01D0012D06D10CB333
:1022100086F31188BFF36F8FBDE8F883ACB1304609
:10222000FFF79EF94FF08042D2F81835002BE0D12D
:1022300039680029DDD03B603B680123C2F81835BE
:10224000C8F88031C9F80030D3E70021212002F01E
:10225000A1FEE7E74FF080430222C3F80423DBE747
:1022600012490E480E4A4FF40E7303F06EFFBDE89C
:10227000F8430B484FF40E7103F08EBE4FF08043CD
:102280000222C3F808230646AEE700BF000800207C
:1022900094070020C4070020567100003E6B000028
:1022A000F5700000D20D002004010040396C0000E0
:1022B00000E100E00800004008B5084B084818603D
:1022C00004F062F938B10748FFF796FD0548FFF7BB
:1022D00007F9002008BD6FF01200FBE7040800209A
:1022E000EC660000E92200000A2838B5074D0446D4
:1022F00004D1286883680D215B6898472868836843
:10230000E1B25B689847204638BD00BF0408002052
:1023100070B5056916460C4661B92249224A234820
:10232000242303F012FF224803F00FFF1E4824214C
:1023300003F032FE636863B91E491B4A1B4825231C
:1023400003F003FF1C4803F000FF1748252103F0AA
:1023500023FE6B685BB100229C4213D123685AB9FB
:10236000AA686B60944200D1AB600023236076B909
:10237000002070BD0B46EFE71360AB689C4208BFBE
:10238000AA60F2E719681A460029F3D13EB16B68DA
:102390002360A8686C600028EAD1AC60E9E76FF0C0
:1023A0001500E6E792710000657100003E6B0000C9
:1023B0009B710000AA710000BC7100002DE9F0477C
:1023C00004680F4616464CB32568DFF85880DFF8DE
:1023D0005890DFF858A0002D38BF0025A3681E4292
:1023E00014D0636863B9494645234246504603F01A
:1023F000ACFE0B4803F0A9FE4521404603F0CCFD9E
:10240000D4E90132214632403846984735B12B682D
:10241000002B38BF00232C461D46DFE7BDE8F087C0
:10242000BC71000065710000D37100003E6B0000BC
:102430000268530910B504462CD0012B4FF6FF73E8
:1024400018BF002302F01F02D340DB070BD414494E
:102450001448154A4FF4057303F077FE12484FF401
:10246000057103F099FD236803F01F025B092260E8
:102470000DD0012B11D00D490A480B4A40F2192307
:1024800003F063FE084840F2192103F085FD4FF088
:10249000A04010BD4FF0FF33D4E70548F9E700BF77
:1024A000127200003E6B0000DF710000396C00000A
:1024B0000003005008B5094B1A786AB90121197058
:1024C00006200521FFF7D2F80620FFF7B1F8044BEC
:1024D0004FF00042C3F80423002008BDC1090020CA
:1024E00000600040B2F5A03F2DE9F74304690746BC
:1024F0000E469046994601F01F0540F0AB804368B8
:102500001B7A01A845EA43130193FFF791FF019B52
:1025100003F5E07350F82330D80700F1BB80E3687F
:102520000121B14019436369E1600121B140B8F56F
:10253000A03F0CBF0B438B436361A369574AD7F895
:102540001080B9F5C02F0CBF0B438B43A3612369E7
:10255000B9F5802F0CBF194323EA01017B68216183
:102560001B7A45EA4315D2F804330020DBB200F5AC
:10257000A27152F82110C1F305218D4275D123FAC1
:1025800000F1C90771D5830003F1804303F5C0430F
:10259000D3F8101521F00101C3F810150123834071
:1025A000C2F80833C0B200F02DFF2846002103F026
:1025B000C8FED8F80C00F04010F0010047D0D8F861
:1025C0001400F04010F0010457D0D8F81830F34050
:1025D000DB075FBFD8F8101021FA06F606F00106F7
:1025E000C6F1020601A854BFF6B2032600F02CFF84
:1025F0002B4B98423ED19DF804108B0003F1804391
:1026000003F5C0432D02D3F8102522F44F3222F4F3
:102610004072C3F81025D3F8102505F47C551543F6
:102620008A0002F1804202F5C24245EA06460020D5
:10263000C3F8106510601268D3F8102542F001024B
:10264000C3F81025154A01238B40C2F8043303B0A8
:10265000BDE8F083B2F5005F7FF461AF012101FABC
:1026600006F3E16821EA03015DE7013008287FF401
:102670007EAF9AE76FF01200E9E7D8F81010F1404A
:1026800001F00101C1F103012846C9B203F059FE6E
:102690002046DCE76FF08500D9E700BF006000400E
:1026A0000000AD0B2E4BF7B52E4C40681340A342F3
:1026B00045D00ED8062B44D006D8002B41D0022B93
:1026C00041D06FF0150038E0B3F5801FF9D1012437
:1026D00009E0254CA34238D0B3F5A00F37D0B3F5AD
:1026E000800FEED10224D50682F4807354BFC2F36A
:1026F00040160326C3F300279305C2F3402507D5F0
:102700001305D0F804C024D501238B40CCF808353C
:10271000037A01F01F0141EA431101A80191FFF77B
:1027200087FE019A45EA470343EA042302F5E07273
:1027300043EA860340F82230002003B0F0BD0724AE
:10274000D1E71C46CFE70424CDE70524CBE70324DB
:10275000C9E7530542BF01238B40CCF80C35D7E7BE
:102760000600F0000600100002004000F0B5002452
:1027700085B0CDE90044CDE90244264E35685DB10F
:1027800002A9254803F0F0FD03A90090234803F0B7
:10279000EBFD019034603368214C00220126944601
:1027A000D4F8043306FA02F119421BD0910001F16A
:1027B000804101F5C2410B68A3B102F5A27304AFD9
:1027C00054F82330C1F800C0C3F3403007EB800059
:1027D000C3F3042350F8107C06FA03F33B4340F89C
:1027E000103C0B680132082ADAD1009A1AB10A4962
:1027F0000C48FFF7E3FD019A1AB108490A48FFF7B0
:10280000DDFD2DB1044803F0F3FD044803F0F0FDB5
:1028100005B0F0BD7C6100401C670000346700001B
:10282000006000400C08002028080020F0B54B791B
:10283000012B2AD0032B25D110268B79032B21D1F4
:10284000CC792CB1012C1DD143685B689B0719D052
:102850000A7912B1022A15D10E220B684568B3F528
:10286000164F2D6865D02DD8B3F5165F64D016D8F5
:10287000B3F5966F62D00AD8B3F5967F61D0B3F501
:10288000167F61D06FF0850052E00026D5E7B3F5E2
:10289000166F5CD0B3F5965FF4D1374B3CE0B3F5DF
:1028A000E14F57D007D8B3F5615F55D0B3F5964FD8
:1028B000E8D1324B30E047F61227BB42E2D14FF469
:1028C000000329E0B3F5613F48D013D8B3F5963F34
:1028D00047D009D84DF6C027BB4244D0B3F5614F6D
:1028E000D0D14FF46B0317E0B3F5E13FCAD14FF0FD
:1028F000EB7311E0B3F5612F38D008D8204FBB42FD
:1029000037D0B3F5E12FBDD14FF0E86304E01D4FA0
:10291000BB42B7D14FF08053C5F82435036903C9D2
:10292000344322430433C5F86C2583E803000020B8
:10293000F0BD4FF41D03EFE7134BEDE74FF49E237B
:10294000EAE74FF4A033E7E74FF41C33E4E74FF432
:102950001D23E1E70D4BDFE70D4BDDE74FF06C7317
:10296000DAE70C4BD8E74FF46503D5E74FF0706317
:10297000D2E74FF08063CFE700B0130000A04E0015
:1029800090D0030040420F000050270000C07500A7
:1029900000F03A0000903A010268530910B504466D
:1029A0002CD0012B4FF6FF7318BF002302F01F023B
:1029B000D340DB070BD414491448154A4FF4057370
:1029C00003F0C3FB12484FF4057103F0E5FA2368E6
:1029D00003F01F025B0922600DD0012B11D00D49BD
:1029E0000A480B4A40F2192303F0AFFB084840F2B3
:1029F000192103F0D1FA4FF0A04010BD4FF0FF3382
:102A0000D4E70548F9E700BF127200003E6B0000F2
:102A1000DF710000396C000000030050F8B5066952
:102A200005460F4603F004FE10B92C4B1B7883B902
:102A30004FF02003EFF3118483F31288BFF36F8FFD
:102A4000284603F044FD28BB84F31188BFF36F8F41
:102A5000EEE76424284603F03AFD70B9012003F044
:102A600089FD013CF6D10021212002F093FAF0E724
:102A700084F31188BFF36F8FF5E74FF02003EFF376
:102A8000118483F31288BFF36F8F284603F01FFD74
:102A90000028EDD006F8107F69680B680122C3F8A2
:102AA0004465C3F848250022C3F82021D3F820014B
:102AB000C3F85821D3F858214A68D20641BF0822EA
:102AC000C3F800254FF48002C3F8042301229A6062
:102AD00084F31188BFF36F8FF8BD00BFD20D0020C3
:102AE0002DE9F341456806692C680023C4F80035D8
:102AF0000746AB68306001A80193FFF74DFF019ACC
:102B000001239340C0F80835AB68019301A8FFF793
:102B100043FF019B03F5E073032240F82320EB6899
:102B2000591C0CD001A895F818800193FFF734FFC9
:102B3000019B03F5E0734FEA880240F82320D5E9B2
:102B40000223C4F80C25C4F814352B695A1C0CD088
:102B500001A895F819800193FFF71EFF019B03F56B
:102B6000E0734FEA880240F823206B69581C13D0A9
:102B700001A80193FFF710FF019A01239340C0F8C9
:102B800008356B69019301A8FFF706FF019B03F568
:102B9000E073032240F82320D5E904323969C4F8F0
:102BA00008253846C4F810350431FFF73FFE0746C4
:102BB000002845D16B68190719D506F1120000F0FD
:102BC0007BFC234B98423FD1B07CC30003F1804390
:102BD00003F5F83304F10C0204F59071C3F81015F5
:102BE000C3F814251B4A01238340C2F80435082387
:102BF000C4F80035EB6801330CD00023C4F8103161
:102C0000D4F8103106F11103C4F834350123C4F8A7
:102C1000383523606B681A075CBF4FF48072C4F8C4
:102C20000423DB0644BF4FF48003C4F8043310369A
:102C30000023C4F84465C4F848350123A360E36069
:102C4000384602B0BDE8F0816FF00407F8E700BF36
:102C50000000AD0B00F00140194970B5044622F0A8
:102C60007F460868C1E90023A6F50013101AB3F5E2
:102C7000400F4FF000050AD2124B19680A060B0AE2
:102C80009219114943F10003C1E90023012502F023
:102C90005FFEA30003F1804303F58833D3F840259A
:102CA000B2420BD11DB94FF40002C3F84025074BC7
:102CB0004FF4803000FA04F4C3F8444370BD00BF01
:102CC0004001002048080020280100200010014099
:102CD00010B501238340114ABFF35B8FDC4352E8F8
:102CE000001F01EA040C42E800CEBEF1000FF6D14D
:102CF000BFF35B8F4FF4803202FA00F002F18042A2
:102D000002F58052C2F80803BFF35F8FBFF36F8FE5
:102D10000B4214BF0120002010BD00BF440800205A
:102D20000123124ABFF35B8F834052E8001F19430F
:102D300042E8001CBCF1000FF7D1BFF35B8F0C4AD7
:102D40004FF480338340C2F804330A4BBFF35B8FE8
:102D50001B68BFF35B8F23FA00F0C30742BF064B2B
:102D60004FF40032C3F80021704700BF4408002030
:102D7000001001404008002000E100E00D4B1B68FE
:102D8000190A1806BFF35F8F0B4BD3F80435C01830
:102D900041F10001B3F5801F0AD2084BD3E90023AB
:102DA000994208BF904203D210F1807041F10001B6
:102DB000704700BF48080020001001402801002093
:102DC0002DE9F04F85B016461F460546FFF780FFF8
:102DD0000190FFF7D3FFB94208BFB0427FD2B6EBF4
:102DE000000867EB010900234FF080724B4508BFD4
:102DF0004245C0F08580444B03EB0513D3E9022321
:102E00009F4208BF964254D04FEA85094FF4803B59
:102E100009F1804905F150080BFA05F209F58839E6
:102E20004FEA88081FFA88F80292384AD9F8400514
:102E300026F07F4308F1804808F588381C46934601
:102E4000D2F804A5A0EB0A0020F07F402AF07F41D1
:102E50000128C9F8401505D10393132003F0F2FBB4
:102E60002A4A039B02990AF1020CA4EB0C0020F001
:102E70007F40B0F5000F88BF64460020C8F800000E
:102E8000D8F80000CBF8441324F07F40C9F840057F
:102E9000DBF80405824506D0201A023820F07F4076
:102EA000B0F5000F19D8E41A24F07F44321947F125
:102EB0000003154C290104EB0510C0E902230E9A0A
:102EC0000F9B625043600024019B13B12846FFF71B
:102ED00027FF204605B0BDE8F08F2046B0E701236C
:102EE0000B4ABFF35B8FAB4052E8001F194342E827
:102EF00000100028F8D1BFF35B8F32463B46D8E77D
:102F00006FF01504E0E700BF300100200010014021
:102F1000400800202DE9F743344CD4F804339A07D5
:102F200009D5334B1A6832B100221A60314A1B6846
:102F30001368013313604FF02003EFF3118283F322
:102F40001288BFF36F8FD4F80433DB0312D5BFF3BD
:102F50005B8F294B53E8001F21F0010043E8000676
:102F6000002EF7D1BFF35B8F244B002936D11968AF
:102F7000002933D1002382F31188BFF36F8F53B33D
:102F8000FFF7FCFE06464FF02003EFF3118083F3BA
:102F90001288BFF36F8F1A4BD3E90289494508BFE6
:102FA00046454FF000021ED34FF0FF364FF0FF377B
:102FB000D3E90015C3E902671A604FF48033C4F8FF
:102FC000483380F31188BFF36F8F21B100954246DB
:102FD0004B460020884703B0BDE8F083002119600C
:102FE0001B680123C7E71146EBE700BF0010014053
:102FF0000411014048080020400800204011014011
:103000003001002073B51A4B1A4D00244FF0FF30E9
:103010004FF0FF31C5F80845C3E902014FF4803392
:10302000C5F80433144B02264FF400320121C5F8D1
:1030300004631120C3F880212246FEF717FB1120FC
:10304000FEF7F6FA0D4AC5F80463012313600C4A33
:103050002B6013600B4B0C4A009301940023204615
:10306000FFF7AEFE3046FFF77BF8204602B070BD9A
:10307000300100200010014000E100E00810014094
:1030800044080020592C0000FFFF7F00144B13B5AB
:10309000B0F1FF3F08BF1846441E002C1EDD9C42C5
:1030A000A8BF1C46FFF76AFE0E4B0F49D3E9002369
:1030B000801AB0F5000F28BF0024013004440848EE
:1030C0000091844228BF044612194FF0000001907D
:1030D00043F10003FFF774FE02B010BD0024E1E7E6
:1030E000FFFF7F0040010020592C000008B5FFF7CA
:1030F00045FE024B1B68C01A08BD00BF40010020FE
:1031000010B5064C064907482246172303F01DF860
:1031100020461721BDE8104002F03EBF517200006A
:10312000396C00003E6B000008B578B101281CD056
:10313000144A154915484FF44F7303F006F8114827
:103140004FF44F7102F028FF00200DE031B14FF035
:103150008043D3F8183403F003030B604FF080432F
:10316000D3F81804C0F3004008BD31B14FF08043DC
:10317000D3F80C3403F001030B704FF08043D3F805
:103180000C04EFE78D720000396C00003E6B00000C
:1031900010B5044648B90A490A480B4AB52302F05B
:1031A000D4FF0948B52102F0F7FE084B1A7922B97D
:1031B000012207481C609A8010BD0648FCE700BF4A
:1031C000FE7200003E6B0000C17200004C0800203F
:1031D0000000AD0B0C00AD0B08B50B4B1B794BB9C8
:1031E0000A490B480B4ACE2302F0AFFF0948CE2113
:1031F00002F0D2FE0020FEF72BFA18B9BDE8084015
:10320000FEF716BA08BD00BF4C0800200C73000082
:103210003E6B0000C1720000224B1B7913B50446BF
:103220005BB921492148224A4FF4857302F08DFF92
:103230001F484FF4857102F0AFFE74B1012C27D006
:103240001B4A1C4919484FF49E7302F07EFF184830
:103250004FF49E7102F0A0FE16E001A92046FFF790
:1032600063FF4FF0804388B1019A012A0ED1C3F861
:103270001825114B00221A601B684FF08043022270
:10328000C3F8042301229A6002B010BD0022EEE7C9
:103290000A4B00221A601B684FF08043C3F80443B6
:1032A0001C60F1E74C0800200C7300003E6B00002E
:1032B000C1720000396C00000401004000010040B0
:1032C00037B52F4D2A7904465AB92E492E482F4A30
:1032D00040F2431302F039FF2C4840F2431102F050
:1032E0005BFE7CB1012C28D029492748274A40F2AF
:1032F0005F1302F02AFF254840F25F1102F04CFEF6
:1033000003B030BD4FF080430222C3F80823C3F856
:10331000044103F5827301221B681E4B42F21074B4
:103320001A6000210846FFF7FFFE0028E8D00120C0
:1033300003F020F9013CF4D1E2E74FF08043002292
:10334000C3F80843C3F8002103F580731B68124BD0
:103350001C608DF8074042F210740DF10701012046
:10336000FFF7E2FE10B900236B71C9E79DF8070073
:103370000128F8D103F0FEF8013CEED1F3E700BFDD
:103380004C0800200C7300003E6B0000C17200006E
:10339000396C00000C00004004000040164B07B5DB
:1033A0001A686AB100221A601B684FF0804301223C
:1033B000C3F80823114B587910B95A711B68984704
:1033C0000F4B1A686AB10020186001A91B68FFF74B
:1033D000ABFE019A4FF0804332B90122C3F81825A1
:1033E0009A6003B05DF804FB0222C3F80823034B84
:1033F00001201B689847F4E7000100404C080020BA
:1034000004010040012303FA00F010F0FF0F12D076
:103410004FF02003EFF3118183F31288BFF36F8F16
:10342000064AD36D23EA0000D06581F31188BFF30B
:103430006F8F034870470348704700BF540800204F
:103440000000AD0B0400AD0B2DE9F0410546DFF89F
:1034500060E01648DFF85C800024FF220126E3B21A
:103460004FF02001EFF3118C81F31288BFF36F8FBF
:1034700022FA03F1C9070AD5DEF85C1006FA03F751
:10348000394201BF3943CEF85C1040462B708CF3B3
:103490001188BFF36F8F404505D006FA03F39A43B6
:1034A00004F10104DBD1BDE8F08100BF0200AD0BE7
:1034B000540800200000AD0B2DE9F041144A154ED0
:1034C000154F0546154800244FF0010E5FFA84FCA5
:1034D0004FF02003EFF3118883F31288BFF36F8F4F
:1034E0000EFA0CF3134207D031680B4201BF1943A7
:1034F000316085F800C0384688F31188BFF36F8FBC
:10350000B84203D09A4304F10104DFD1BDE8F08151
:10351000FFFF0F00B40800200000AD0B0200AD0B50
:10352000034B1868A0F1080358425841704700BF88
:1035300030010010064B1B68082B06D1054B1B6899
:10354000052B02D8044AD05C70470020704700BFAA
:10355000300100103401001030730000024AD2F82C
:103560000034002BFBD0704700E0014010B5FFF79E
:10357000D7FF40B14FF080430022C3F80C21C3F8BD
:103580001021C3F83825FFF7CBFF002846D04FF0B5
:1035900080525B4BD2F80414C3F82015D2F80814FB
:1035A000C3F82415D2F80C14C3F82815D2F8101457
:1035B000C3F82C15D2F81414C3F83015D2F8181427
:1035C000C3F83415D2F81C14C3F84015D2F82014EF
:1035D000C3F84415D2F82414C3F84815D2F82814B7
:1035E000C3F84C15D2F82C14C3F85015D2F8301487
:1035F000C3F85415D2F83414C3F86015D2F838144F
:10360000C3F86415D2F83C14C3F86815D2F8401416
:10361000C3F86C15D2F84424C3F87025FFF78AFF6D
:1036200010B1384B384A1A60FFF784FF18B1374B96
:10363000FB22C3F81825FFF77DFF48B13449354B0D
:103640000A681B6822F00F0203F00F0313430B609C
:10365000FFF770FF18B1304B4FF400721A60FFF79C
:103660005FFF48B14FF08043D3F80024D20744BF36
:103670006FF00102C3F80024284B1B68082B0ED101
:10368000274B1B68052B02D8264AD35C3BB14FF071
:103690001023D3F808224FF08043C3F858254FF089
:1036A0001023D3F80022002A03DBD3F80432002BC6
:1036B00022DA1D490123C1F80435FFF74FFF4FF00F
:1036C00010201224C0F80042FFF748FFC0F804425F
:1036D000FFF744FF0023C1F80435FFF73FFFBFF3B6
:1036E0004F8F1249124BCA6802F4E0621343CB6059
:1036F000BFF34F8F00BFFDE70E4B0F4A1A6010BD9E
:1037000000C000408C5600404881030000F000409B
:10371000E40E0040580200104096024030010010B4
:10372000340100102A73000000E0014000ED00E0C9
:103730000400FA05540000200090D00310B5144C8A
:10374000144A1549032323616361144BA261E361A9
:103750004FF4806323620023A3626362E362226604
:103760000F4A6266E01D1022A2662367E366636764
:1037700002F016FDBFF35F8F0A49204602F010FDEC
:10378000BFF35F8F2023A371BFF35F8F10BD00BF16
:10379000B8080020367300003F730000D2090020F3
:1037A000C2090020437300000E4B70B553F820404F
:1037B000013053F82060A64200D870BDD4E900352E
:1037C0002846984765B1EB6830B10028B8BF404241
:1037D000FF28A8BFFF2018705A7842F001025A70E3
:1037E0000834E8E7186A0000F8B504460E464FF0C2
:1037F0002003EFF3118783F31288BFF36F8F01F07B
:1038000001FC31460546204602F0A4FE042C0CD1F2
:103810000A490B4A0B488F2302F097FC0A4802F032
:1038200094FC07488F2102F0B7FB87F31188BFF3A0
:103830006F8F2846BDE8F840FEF7A6B96C7300000C
:103840004A7300003E6B000089730000114CA268AF
:1038500092F90E20002A08B509DA0F490F48104ADC
:10386000462302F072FC0E48462102F095FB4FF011
:103870002002EFF3118382F31288BFF36F8F01F000
:10388000CFFFA061FDF7C8FD0028F0D1FDF75AFE7B
:10389000EDE700BF60090020DF7300003E6B000011
:1038A000BE73000030B5002387B00122CDE90423A8
:1038B0000F22CDE902320D4C0D4A01930D49182318
:1038C00004EBC01403FB00234FF4B075009305FB19
:1038D0000011094B4FF4A072204601F015FD637BE7
:1038E00023F00403637307B030BD00BF480100201C
:1038F00060090020C01300204D38000008B50A4BB5
:10390000012202201A70FFF74FFF02F057F903203F
:10391000FFF74AFF01F05CFDFCF76CFD034A137BE7
:1039200023F00103137308BDD20D0020C80100204D
:103930000248034A0021121A02F057BC2801002055
:10394000900F002080B5DFF8D880A6B088F30888F3
:103950002D4D2E4E6B69DFF8CC9043F4007300249C
:103960006B61E02385F82230EC772C766C76AC76B0
:1039700085F820406B6A43F4E0236B6285F82340AE
:10398000FEF7ACF8FDF7D8FD4FF0FF33AB62EB620A
:10399000FEF7D4F9FEF70AF940F20113ADF824302E
:1039A00006ABB360CDE91F4402F0EDFD2046FFF702
:1039B000FBFE0120164DFFF7F7FE01F08DF9154BC8
:1039C0000593012314490094CDE903434FF4806229
:1039D0004B46CDE901442846F56101F095FC6A7B30
:1039E00022F004026A730746284600F0C1FD204613
:1039F000FFF758FF094BF3604A46394628463475AD
:103A0000C6F80480FDF7D2FE00ED00E0600900205A
:103A1000C801002007740000A00F0020480100200A
:103A2000401D0020FD3800002DE9F041164D174CD7
:103A3000174EA846AC420CD9164917483C233246CB
:103A400002F083FB154802F080FB3C21304602F077
:103A5000A3FA444502D30020BDE8F081D4E9042153
:103A600041EA020313F003030BD1E068A361834230
:103A700001D12034DEE7A7690F600133A161114451
:103A8000F5E76FF01500E7E7D8000020D800002028
:103A90000C740000317400003E6B00004E74000096
:103AA0002DE9F74304460E469046994600F1080575
:103AB0004FF02003EFF3118783F31288BFF36F8F6A
:103AC000284601F015FD68B9244A25492548812377
:103AD00002F03BFB2448294602F037FB1F488121B6
:103AE00002F05AFA284601F021FDA369EBB13360D8
:103AF0001B68A361E3690133E3610024284601F0F8
:103B000005FD68B9154A19491648AC2302F01DFB9A
:103B10001748294602F019FB1048AC2102F03CFA84
:103B200087F31188BFF36F8F13E058EA090203D1BE
:103B300033606FF00B04E1E72246CDE90089394696
:103B4000284600F0C7FE044618B90A4B9B685B691B
:103B50003360204603B0BDE8F08300BF516C000025
:103B6000A36C00003E6B0000B86C0000776C000096
:103B70008E6C0000600900202DE9F04104460E46DD
:103B800000F108054FF02003EFF3118783F312884B
:103B9000BFF36F8F284601F0ABFC68B9224A234976
:103BA0002348812302F0D1FA2248294602F0CDFAB7
:103BB0001D48812102F0F0F9284601F0B7FCD4F845
:103BC0001880B8F1000F0FD1204601F035F858B138
:103BD00032684261C0F8788000F0CAFC3946284655
:103BE000BDE8F04100F070BA3368A2691A6033682A
:103BF000A361E369013BE361284601F087FC68B9F2
:103C0000094A0D490A48AC2302F09FFA0B4829469D
:103C100002F09BFA0448AC2102F0BEF987F3118848
:103C2000BFF36F8FBDE8F081516C0000A36C000002
:103C30003E6B0000B86C0000776C00008E6C0000DA
:103C40002DE9F341044616461F46EFF3058363B1A1
:103C50007049714A7148652302F077FA704802F0A2
:103C600074FA6D48652102F097F94FF02003EFF3E5
:103C7000118883F31288BFF36F8F6A4801F038FC14
:103C800068B9694A69496548812302F05EFA654965
:103C9000674802F05AFA6448812102F07DF96148D0
:103CA00001F044FCE368634AFBB1A0689168884274
:103CB0003DD056EA07033CD15A4801F027FC68B9C9
:103CC000594A5D495548AC2302F03FFA55495B48D3
:103CD00002F03BFA5448AC2102F05EF988F31188F7
:103CE000BFF36F8F6FF00F001EE0916891F90E1017
:103CF0004C4821610133E3609368A36001F006FC46
:103D000068B9494A4C494548AC2302F01EFA454976
:103D10004A4802F01AFA4448AC2102F03DF988F30F
:103D20001188BFF36F8F002002B0BDE8F0812169D8
:103D3000DEE791F90E1090F90E309942A8BF1946AE
:103D40006FF07E029142B8BF11468B4244DD00F015
:103D5000F1FD0546CDE9006732482246414600F0B4
:103D6000B9FD0028E0D04FF02003EFF3118683F374
:103D70001288BFF36F8F2B4801F0BAFB68B92A4A4B
:103D80002A492648812302F0E0F92649284802F012
:103D9000DCF92548812102F0FFF8224801F0C6FB3A
:103DA000236821699C420AD04BB193F90E309942A5
:103DB000A8BF19466FF07E039942B8BF1946A068A4
:103DC00090F90E30994209D16DB11648314600F094
:103DD0007BF96FF00A00A7E70025BBE700F0AAFD1A
:103DE0000028F2D1F0E70F4801F090FB68B90E4AC5
:103DF00011490A48AC2302F0A8F90A490F4802F019
:103E0000A4F90948AC2102F0C7F886F31188BFF382
:103E10006F8FDEE78F7400006D7400003E6B000052
:103E2000A174000088090020516C0000A36C000000
:103E3000B86C000060090020776C00008E6C0000F8
:103E400038B50446EFF3058363B15249524A5348EB
:103E5000C72302F07AF9524802F077F94E48C72199
:103E600002F09AF8A368002B00F08D804D4DAA68EF
:103E7000934240F08B80E3684BB94B494748464A30
:103E8000DF2302F062F94448DF2102F085F8EFF306
:103E9000058363B13F49454A4048FD2302F055F987
:103EA000434802F052F94148FD2102F075F8AB6831
:103EB000DB7B012B0CD13F493C4A3848FE2302F002
:103EC00044F93B4802F041F93848FE2102F064F819
:103ED000AA68D37B013BD373E368012B05D9013B6F
:103EE000E36000F02DFE002038BD4FF02003EFF31B
:103EF000118583F31288BFF36F8F2F4801F0F8FA12
:103F000068B92E4A2E492548812302F01EF92A4914
:103F10002C4802F01AF92948812102F03DF8264880
:103F200001F004FBA068216990F90E30994201D09C
:103F300000F000FD204600F07FFEA06058B190F92F
:103F40000E2022610022826700F012FB1A482946E7
:103F500000F0BAF8C5E7E060174801F0D7FA68B991
:103F6000164A19490D48AC2302F0EFF812491748D8
:103F700002F0EBF81148AC2102F00EF885F311883D
:103F8000BFF36F8FADE76FF01500ADE74FF0FF3077
:103F9000AAE700BF8F7400006D7400003E6B000044
:103FA000A174000060090020C6740000DD740000E8
:103FB000087500000B75000088090020516C000096
:103FC000A36C0000B86C0000776C00008E6C0000E1
:103FD00010B5084C23685BB1FFF788F803462068EA
:103FE000054A0344BDE810401361002101F060BCA4
:103FF00010BD00BF9809002060090020F8B50446F4
:104000000D464FF02003EFF3118683F31288BFF3C0
:104010006F8F234801F06CFA68B9224A224923487D
:10402000812302F092F81E49214802F08EF81D48C3
:10403000812101F0B1FF1A4801F078FA1D4B0022EE
:104040004FF4004740F2E73000211A61E7FB04011A
:1040500000234FF47A72FCF753F8002C164B1BDC4C
:104060001860164B1D60FFF7B3FF0D4801F04EFAC4
:1040700068B90C4A12490D48AC2302F066F80849A9
:10408000104802F062F80748AC2101F085FF86F382
:104090001188BFF36F8FF8BD0228B8BF0220DFE799
:1040A00090090020516C0000A36C00003E6B0000E2
:1040B000B86C0000600900209809002094090020D5
:1040C000776C00008E6C000038B504460D46E9B9E7
:1040D000EFF30583D3B9194BDA699B689A4215D07F
:1040E00001F014FA68B9164A16491748C32302F0BA
:1040F0002CF81648214602F028F81148C32101F097
:104100004BFFBDE838400020FDF700BB204601F022
:10411000FDF968B90A4A0B490B48AC2302F015F8BF
:104120000A48214602F011F80548AC2101F034FF9D
:1041300085F31188BFF36F8F38BD00BF6009002081
:10414000516C0000776C00003E6B00008E6C00002C
:1041500038B54FF02003EFF3118583F31288BFF3D6
:104160006F8F294801F0C4F968B9284A28492948BD
:10417000812301F0EAFF2449274801F0E6FF2348A4
:10418000812101F009FF204801F0D0F9EFF3058308
:1041900063B12249224A1F48FD2301F0D6FF21487E
:1041A00001F0D3FF1E48FD2101F0F6FE1E4CA2686F
:1041B000D27B012A0CD11D49194A1648FE2301F071
:1041C000C4FF184801F0C1FF1548FE2101F0E4FECC
:1041D000A268D37B013BD3730B4801F097F968B910
:1041E0000A4A13490B48AC2301F0AFFF06491148B6
:1041F00001F0ABFF0548AC2101F0CEFE85F311883C
:10420000BFF36F8F38BD00BF90090020516C0000D4
:10421000A36C00003E6B0000B86C00008F740000BF
:10422000DD74000008750000600900200B750000B7
:10423000776C00008E6C00000C4B994210B50C4658
:104240000BD10B490B480C4A40F2B53301F07DFF0E
:10425000094840F2B53101F09FFED4E90032136005
:104260005A600023C4E9003310BD00BF480100209C
:104270005E7500003E6B00003C750000836810B561
:1042800004465BB90B490C480C4A40F2532301F039
:104290005CFF0A4840F2532101F07EFEA0682146EF
:1042A000FFF7CAFF637B23F0020363730023A3605D
:1042B00010BD00BF7F7500003E6B00003C75000024
:1042C00038B502461448154D02F0A8F9044600B965
:1042D000EC68CAB9AB6863B91149124A1248812324
:1042E00001F033FF114801F030FF0E48812101F049
:1042F00053FEAB685A7BD20606D1A26922B9DA898D
:104300007F2A01D9EB6138BDAB68A34201D0FFF72A
:104310005FFEEC61F7E700BF800900206009002024
:10432000967500003C7500003E6B000008750000AB
:1043300070B590F90D20437B002A044606DA03F09D
:104340007F03437301461F48FFF776FF637B63F0EB
:104350007F0363731C4B9C4209D11C491C481D4AB6
:10436000B12301F0F2FE1B48B12101F015FE1A4AFB
:104370001146556A51F8203F8B4208BF0023002B9D
:1043800038BF0023CBB194F90E6093F90E0086423A
:104390000FD0801B00280CDD5968C4E900310C6087
:1043A0005C609068031B5842BDE870405841FFF7BD
:1043B00087BFAB4201D01B68E4E7C4E900152C605D
:1043C0005462EEE780090020480100205E7500007D
:1043D0003E6B00003C7500006009002070B504468B
:1043E0004FF02003EFF3118583F31288BFF36F8F33
:1043F0002A4801F07DF868B9294A2A492A488123C8
:1044000001F0A3FE2549294801F09FFE244881219F
:1044100001F0C2FD214801F089F8254B254A986832
:1044200011688842194618D1FFF7D2FD1B4801F0E8
:104430006DF868B91A4A20491B48AC2301F085FE83
:1044400016491E4801F081FE1548AC2101F0A4FD7B
:1044500085F31188BFF36F8F70BD00261660184A70
:104460001268BAB1C2897F2A14D8427BD20611D110
:10447000144A90F90E60126896420BDB124A904281
:1044800008D01A69A24202DCFFF752FFCCE7121BE8
:104490001A61CBE700230B61C8E700BF9009002039
:1044A000516C0000A36C00003E6B0000B86C000073
:1044B000600900208C090020776C00008E6C0000E1
:1044C00098090020940900204801002070B590F957
:1044D0000D20437B002A04463EDBDA063CD1856989
:1044E000002D39D163F07F0343731C4B984209D1EF
:1044F0001B491C481C4AB12301F027FE1A48B12170
:1045000001F04AFD19490B4653F8200F984218BF95
:104510000546002D1A462B464D6A38BF0023B3B11D
:1045200094F90E6093F90E0086420CD0801B00288F
:1045300009DD5A68C4E9003214605C60BDE870406F
:104540000020FFF7BDBEAB4201D01B68E7E7C4E91E
:1045500000252C604C62F1E770BD00BF48010020CF
:104560005E7500003E6B00003C7500006009002095
:1045700038B504464FF02003EFF3118583F312881A
:10458000BFF36F8F174800F0B3FF68B9164A174999
:104590001748812301F0D9FD1249164801F0D5FDD5
:1045A0001148812101F0F8FC0E4800F0BFFF2046C1
:1045B000FFF78CFF0B4800F0A9FF68B90A4A0E49C3
:1045C0000B48AC2301F0C1FD06490C4801F0BDFDCC
:1045D0000548AC2101F0E0FC85F31188BFF36F8F33
:1045E00038BD00BF90090020516C0000A36C000092
:1045F0003E6B0000B86C0000776C00008E6C000011
:1046000038B504464FF02003EFF3118583F3128889
:10461000BFF36F8F1D4800F06BFF68B91C4A1D493E
:104620001D48812301F091FD18491C4801F08DFDC2
:104630001748812101F0B0FC144800F077FF637B3C
:104640005A0716D4114800F061FF68B9104A14499E
:104650001148AC2301F079FD0C49124801F075FDB9
:104660000B48AC2101F098FC85F31188BFF36F8FE4
:1046700038BD23F0040320466373FFF727FF294664
:104680000248BDE83840FFF71FBD00BF9009002079
:10469000516C0000A36C00003E6B0000B86C000081
:1046A000776C00008E6C000070B504464FF020035C
:1046B000EFF3118683F31288BFF36F8F204800F069
:1046C00017FF68B91F4A20492048812301F03DFDAA
:1046D0001B491F4801F039FD1A48812101F05CFC9B
:1046E000174800F023FF14F80B3C13F0280F10D1EB
:1046F00054F8103CA4F1180513B12846FFF7BEFD8D
:1047000014F80B3C23F0140304F80B3C2846FFF785
:10471000DDFE0B4800F0FAFE68B90A4A0D490B4865
:10472000AC2301F012FD06490B4801F00EFD0548CF
:10473000AC2101F031FC86F31188BFF36F8F70BD9F
:1047400090090020516C0000A36C00003E6B00003B
:10475000B86C0000776C00008E6C000010B590F90A
:104760000D20437B002A044606DA03F07F034373DF
:1047700001460648FFF760FD054B9868031B584249
:10478000BDE810405841FFF79BBD00BF80090020E5
:104790006009002038B504460D46FFF7DFFF637B54
:1047A00043F0020363731DB3174BA5609C4209D10C
:1047B00016491748174AB12301F0C7FC1548B12123
:1047C00001F0EAFB2B689D4208BF0023002B38BF95
:1047D00000239BB194F90E1093F90E20914208D05A
:1047E000521A002A05DD5A68C4E9003214605C6080
:1047F00038BD6A68934201D01B68EAE76B68C4E978
:1048000000531C606C60F3E7480100205E750000F7
:104810003E6B00003C7500002DE9F04104460D465A
:1048200016461F464FF02003EFF3118883F31288DA
:10483000BFF36F8F1F4800F05BFE68B91E4A1F4927
:104840001F48812301F081FC1A491E4801F07DFCBC
:104850001948812101F0A0FB164800F067FE2046B0
:104860002946FFF797FF134800F050FE68B9124A37
:1048700015491348AC2301F068FC0E49134801F0B8
:1048800064FC0D48AC2101F087FB88F31188BFF36D
:104890006F8F7B1C08BFB6F1FF3F08D032463B4606
:1048A00004F118000A49BDE8F04100F097BEBDE8E8
:1048B000F08100BF90090020516C0000A36C000043
:1048C0003E6B0000B86C0000776C00008E6C00003E
:1048D000A946000038B5114B04469868104B0D46A8
:1048E00018601146DDE90423FFF796FF204600F02B
:1048F0000DFE68B90B4A0C490C48C32301F025FC96
:104900000B48214601F021FC0648C32101F044FB7D
:104910002846BDE83840FCF7F9BE00BF600900201A
:104920008C090020516C0000776C00003E6B000089
:104930008E6C0000F8B504460E464FF02003EFF3EE
:10494000118783F31288BFF36F8F3C4800F0D0FDCE
:1049500068B93B4A3B493C48812301F0F6FB3749A3
:104960003A4801F0F2FB3648812101F015FB33484B
:1049700000F0DCFD637BDA0676B25CD1A569002D20
:1049800059D103F07F03637331482146FFF754FC8C
:10499000637BA67363F07F0363732E4B9C4209D144
:1049A0002D4929482D4AB12301F0CFFB2B48B121D5
:1049B00001F0F2FA2A490B4653F8200F984218BF2B
:1049C0000546002D1A462B464D6A38BF00236BB3AF
:1049D00094F90E6093F90E00864223D0801B0028C4
:1049E00020DD5A68C4E9003214605C600120FFF7E2
:1049F00067FC0124114800F089FD68B9104A194983
:104A00001148AC2301F0A1FB0C49174801F09DFBB4
:104A10000B48AC2101F0C0FA87F31188BFF36F8F08
:104A20002046F8BDAB4201D01B68D0E7C4E90025A1
:104A30002C604C62DAE7A6730024DBE790090020C3
:104A4000516C0000A36C00003E6B0000B86C0000CD
:104A500080090020480100205E7500003C750000C0
:104A600060090020776C00008E6C000070B5044671
:104A7000183000F087FE4FF02003EFF3118683F328
:104A80001288BFF36F8F254800F032FD68B9244AC1
:104A900024492548812301F058FB2049234801F08F
:104AA00054FB1F48812101F077FA1C4800F03EFDBD
:104AB00094F90D20637B002A06DA03F07F031C487B
:104AC00063732146FFF7B8FB1A4D637BA86843F078
:104AD00010036373031B58425841FFF7F1FB0F4863
:104AE00000F014FD68B90E4A13490F48AC2301F0D9
:104AF0002CFB0A49114801F028FB0948AC2101F0C0
:104B00004BFA86F31188BFF36F8FAB68A34203D1D2
:104B1000BDE8704001F078BD70BD00BF9009002075
:104B2000516C0000A36C00003E6B0000B86C0000EC
:104B30008009002060090020776C00008E6C000066
:104B400038B54FF02003EFF3118583F31288BFF3DC
:104B50006F8F2D4800F0CCFC68B92C4A2C492D48A9
:104B6000812301F0F2FA28492B4801F0EEFA274898
:104B7000812101F011FA294C234800F0D7FCA268EA
:104B8000D27B72B92649274A224840F2553301F0B8
:104B9000DCFA254801F0D9FA224840F2553101F0FB
:104BA000FBF9EFF3058373B120491E4A194840F21F
:104BB000563301F0CAFA1C4801F0C7FA194840F20E
:104BC000563101F0E9F9A268D37B01330020D37399
:104BD000FFF776FB0C4800F099FC68B90B4A1449C2
:104BE0000C48AC2301F0B1FA0749124801F0ADFAC4
:104BF0000648AC2101F0D0F985F31188BFF36F8F1F
:104C0000BDE8384001F000BD90090020516C000063
:104C1000A36C00003E6B0000B86C0000600900202F
:104C2000BD7500003C750000087500008F74000021
:104C3000776C00008E6C000038B504464FF02003FE
:104C4000EFF3118583F31288BFF36F8F1B4800F0D9
:104C50004FFC68B91A4A1B491B48812301F075FAB9
:104C600016491A4801F071FA1548812101F094F9AA
:104C7000124800F05BFC204601F0D0FC044628B14D
:104C8000FFF7FCFA04F1180000F07CFD0B4800F07F
:104C90003DFC68B90A4A0E490B48AC2301F055FAAD
:104CA00006490C4801F051FA0548AC2101F074F9AD
:104CB00085F31188BFF36F8F204638BD900900201F
:104CC000516C0000A36C00003E6B0000B86C00004B
:104CD000776C00008E6C0000044B002103F1200271
:104CE000C3E908220846FFF789B900BF6009002020
:104CF000F8B5EFF3058373B14149424A424840F2A7
:104D0000A14301F022FA414801F01FFA3D4840F268
:104D1000A14101F041F94FF02003EFF3118683F335
:104D20001288BFF36F8F3A4800F0E2FB68B9394A46
:104D300039493548812301F008FA3549374801F0EF
:104D400004FA3448812101F027F9354D304800F04C
:104D5000EDFBA9684B7B03F07F034B7305F120004B
:104D6000FFF76AFAAC68637B63F07F0363732D4BD4
:104D70009C4209D12C492448224AB12301F0E5F98B
:104D80002048B12101F008F92B6A2848696A83425A
:104D900008BF0023002B38BF00235BB394F90E70CB
:104DA00093F90E20974221D0D21B002A1EDD5A68AB
:104DB000C4E9003214605C600120FFF781FA1448F6
:104DC00000F0A4FB68B9134A19490F48C32301F046
:104DD000BCF90F49174801F0B8F90E48C32101F09A
:104DE000DBF83046BDE8F840FCF790BC8B4201D0C0
:104DF0001B68D2E7C4E900010C606C62DCE700BF0D
:104E00008F7400003C7500003E6B000008750000C8
:104E100090090020516C0000A36C0000B86C0000E9
:104E200060090020480100205E7500008009002014
:104E3000776C00008E6C00002DE9F04104460D46B1
:104E4000EFF3058373B14549454A464840F2BE43F6
:104E500001F07BF9444801F078F9414840F2BE4145
:104E600001F09AF854EA050304D1FFF741FF00204E
:104E7000BDE8F0816FF001031E1B4FF0FF3363EBC1
:104E80000507012E77F1000364DA01F0D7FB06195C
:104E90004FF02003EFF3118883F31288BFF36F8F75
:104EA000324800F025FB68B9314A32492D48812348
:104EB00001F04BF92D49304801F047F92C48812188
:104EC00001F06AF82D4F294800F030FB2C4BB868F0
:104ED0001860FFF743FCB8682A4922462B46183071
:104EE00000F07CFBBA682148537B43F010035373F6
:104EF00000F00CFB68B91E4A23491A48C32301F08D
:104F000024F91A49214801F020F91948C32101F078
:104F100043F84046FCF7FAFBBB685B7BDB060ED52B
:104F20001B490F4A0F4840F2DF4301F00EF90E48CB
:104F300001F00BF90A4840F2DF4101F02DF801F0D1
:104F40007DFB301A66EB0601012871F10003B8BF42
:104F500000208DE76FF00106361B99E78F74000083
:104F60003C7500003E6B00000875000090090020B1
:104F7000516C0000A36C0000B86C000060090020B8
:104F80008C090020A9460000776C00008E6C0000A0
:104F9000EE75000038B504460D46EFF3058373B196
:104FA0001349144A144840F2EE4301F0CEF8134876
:104FB00001F0CBF80F4840F2EE4100F0EDFF6B1C22
:104FC00008BFB4F1FF3F06D10D4B9868FFF74EFDC7
:104FD0004FF0FF3038BD20462946FFF72DFF4FF434
:104FE0007A7380FB0334D80B40EA4440F2E700BFF9
:104FF0008F7400003C7500003E6B000008750000D7
:1050000060090020014B9868704700BF60090020CC
:105010002DE9F04104464FF02003EFF3118683F3AE
:105020001288BFF36F8F484800F062FA68B9474AA8
:1050300047494848812301F088F84349464801F030
:1050400084F84248812100F0A7FF3F4800F06EFA43
:10505000637B1A0717D53C4800F058FA68B93B4AF9
:105060003E493C48AC2301F070F837493C4801F018
:105070006CF83648AC2100F08FFF86F31188BFF33F
:105080006F8FBDE8F08123F0200242F00801D209C1
:1050900042D16173A36813B12046FFF7EFF804F122
:1050A000180000F06FFB04F158074FF00008A56DE1
:1050B000BD4201D0002D39D10120FFF701F9294B64
:1050C0009B68A342C7D1EFF30583002BC3D11E48D1
:1050D00000F01CFA68B91D4A20491E48C32301F09C
:1050E00034F819491E4801F030F81848C32100F07F
:1050F00053FF3046FCF70AFB1B4A1C49154840F297
:10510000096301F022F81A4801F01FF8164840F22E
:10511000096100F041FF9EE703F05F0343F00803DD
:10512000144863732146FFF787F8B3E72846FFF773
:10513000A5F805F1180000F025FBC5F87880284691
:10514000FFF7C4F9B3E700BF90090020516C0000DD
:10515000A36C00003E6B0000B86C0000776C000090
:105160008E6C0000600900203C750000396C000066
:105170002E7600008009002038B504464FF0200349
:10518000EFF3118583F31288BFF36F8F144800F09B
:10519000AFF968B9134A14491448812300F0D5FFC8
:1051A0000F49134800F0D1FF0E48812100F0F4FEB2
:1051B0000B4800F0BBF92046FFF73EFD48B1002246
:1051C0008267FFF7D5F929460548BDE83840FEF764
:1051D0007BBFD4E902329A4218BF0133A360F2E7E1
:1051E0009C090020516C0000A36C00003E6B000085
:1051F000B86C0000F7B5044616461F46EFF305836A
:105200007BB156EA07030CD03549364A3648792334
:1052100000F09BFF354800F098FF3248792100F0FC
:10522000BBFE4FF02003EFF3118583F31288BFF329
:105230006F8F2F4800F05CF968B92E4A2E492A4832
:10524000812300F082FF2A492C4800F07EFF294884
:10525000812100F0A1FE264800F068F9A368D3B1CF
:10526000013B2348A36000F051F968B9214A244961
:105270001D48AC2300F069FF1D49224800F065FF7E
:105280001C48AC2100F088FE85F31188BFF36F8FB6
:10529000002003B0F0BD56EA070318D1144800F00F
:1052A00035F968B9134A16490F48AC2300F04DFF91
:1052B0000F49144800F049FF0E48AC2100F06CFE85
:1052C00085F31188BFF36F8F6FF00F00E1E7CDE931
:1052D0000067224629460648FFF7FCFAD9E700BFD7
:1052E00070760000507600003E6B000008750000EC
:1052F0009C090020516C0000A36C0000B86C0000F9
:10530000776C00008E6C00002DE9F04385B00446F8
:10531000DDF83C80B8F10F0F0F461546994632D1A3
:10532000254B994533D104F15803C4E91633109B3A
:10533000237307350423637325F0070507F1200362
:10534000C4E919350E9B84F80E80029305F12008FC
:105350000D9B019300260C9B0093B8444B46C4E977
:105360000666A660E673E666424639462046FCF7C6
:10537000E7F9124B66659B6803B11B6F23674046D4
:1053800005B0BDE8F08308F110031E2BCBD90C4A01
:105390000C490D4840F2052300F0D7FE41460B486A
:1053A0006FF00F030E2200F0D0FE054840F20521F9
:1053B00000F0F2FDB7E700BF4D38000060090020A3
:1053C000BD760000E07600003E6B000060770000D4
:1053D0002DE9F04B3F4F404DDFF80C8186B03E4643
:1053E000BD420ED93D493E4840F2D523424600F029
:1053F000ACFE3C4800F0A9FE40F2D521404600F04A
:10540000CBFDB54205F130041FD3FEF7A1FE324CAF
:10541000354DDFF8C880DFF8C890B4420ED9414658
:105420004FF43D732A46484600F08FFE2D4800F0A9
:105430008CFE4FF43D71284600F0AEFDB44221D3FE
:1054400006B0BDE8F04BFFF77BBB54F8043C059376
:1054500054F8103C049354F8143C039354F8183C4B
:10546000029354F81C3C019354F8203C009354E9F7
:105470000A2354E90C01FFF747FF54F8303C5D65FF
:105480002546ADE7616A4B1C14D040F2E732002399
:1054900021EAE1714FF4004093469C46C0FB01BCF9
:1054A0009C4508BF934527685846614604D1384655
:1054B000FFF7A6F83034B0E74FF47A720023FAF71A
:1054C0001FFE02460B4607F11800084900F086F857
:1054D000F0E700BFD8000020D8000020917700003E
:1054E0003E6B00004E740000BD760000A94600002F
:1054F000006838B1044B1B7D00F00300C01A18BFD0
:1055000001207047012070476009002006490346CA
:105510008A68087D1968024391424FF0000004BF79
:1055200018600120704700BF60090020024A117D09
:1055300093680B430360704760090020034B1B68AE
:105540000BB9FDF7D3BD0020704700BFA0090020B4
:1055500038B5134B1C689C4208BF0024FFF7EEFFD0
:105560000546BCB1D4E90401401B61EBE57101289B
:1055700071F1000311DB6FF000420023824273EBF4
:10558000010400DA1046074B1B6913B19842A8BF0B
:10559000184638BD6FF00040F5E70020F3E700BF84
:1055A000580000206009002030B5036868B10A4A3D
:1055B0005268904209D043B1D3E90421D0E90445AF
:1055C000121945EB0101C3E90421426813605A60D6
:1055D0000023C0E9003330BD580000202DE9F74F0B
:1055E0001D466B1C08BFB2F1FF3F82468B46144636
:1055F00000F0AA80036863B15549564A56485D23B6
:1056000000F0A3FD554800F0A0FD52485D2100F0D8
:10561000C3FCCAF808B04FF02003EFF3118B83F3FB
:105620001288BFF36F8F4E48FFF762FF68B94D4A8B
:105630004D494948812300F088FD49494B4800F015
:1056400084FD4848812100F0A7FC4548FFF76EFF24
:105650006FF00103B3EB04084FF0FF3262EB050972
:10566000B8F1000F79F100011CDB4148D0E90010CE
:105670005B1A62EB00021E1B62EB0507012E77F13D
:105680000003BCBF01260027CAE90467394AD2E9F2
:10569000003693421DD1CAE90026C6F800A0C2F820
:1056A00004A02CE0FFF74AFF631C009345F10003C0
:1056B0000193DDE90023121843EBE073CAE90423E8
:1056C000E4E7E01B65EB0801B342CAE90401E2D05C
:1056D0001B68002BDFD0D3E90478DAE90445BC422B
:1056E00075EB0801EDDA381B68EB0501C3E904012D
:1056F0005968CAE90031C1F800A0C3F804A01368D2
:1057000093420BD09A4509D1FFF722FF18B11A4BEB
:105710001B69834202D00021FDF7B8FC1048FFF757
:10572000F5FE68B90F4A15490B48AC2300F00DFD92
:105730000B49134800F009FD0A48AC2100F02CFC8D
:105740008BF31188BFF36F8F03B0BDE8F08F00BFFC
:10575000E2770000BE7700003E6B00000875000095
:10576000A4090020516C0000A36C0000B86C00007C
:10577000480200205800002060090020776C0000DB
:105780008E6C000038B504464FF02003EFF311850E
:1057900083F31288BFF36F8F1A48FFF7A9FE68B929
:1057A000194A1A491A48812300F0CFFC15491948B3
:1057B00000F0CBFC1448812100F0EEFB1148FFF70C
:1057C000B5FE2368DBB12046FFF7EEFE00240D484E
:1057D000FFF79CFE68B90C4A0F490D48AC2300F056
:1057E000B4FC08490D4800F0B0FC0748AC2100F0BB
:1057F000D3FB85F31188BFF36F8F204638BD6FF060
:105800001504E4E7A4090020516C0000A36C00001B
:105810003E6B0000B86C0000776C00008E6C0000DE
:1058200038B54FF02003EFF3118583F31288BFF3EF
:105830006F8F1848FFF75CFE68B9174A1749184878
:10584000812300F082FC1349164800F07EFC1248C8
:10585000812100F0A1FB0F48FFF768FEFFF778FEFB
:1058600004460C48FFF752FE68B90B4A0E490C4833
:10587000AC2300F06AFC07490C4800F066FC0648BF
:10588000AC2100F089FB85F31188BFF36F8F2046B0
:1058900038BD00BFA4090020516C0000A36C0000BB
:1058A0003E6B0000B86C0000776C00008E6C00004E
:1058B00070B504460D464FF02003EFF3118683F3D5
:1058C0001288BFF36F8F1B48FFF712FE68B91A4AA0
:1058D0001A491B48812300F038FC1649194800F08A
:1058E00034FC1548812100F057FB1248FFF71EFEDB
:1058F000FFF72EFE012805DDA04203DB29462046E6
:10590000FDF7C4FB0B48FFF701FE68B90A4A0E49D0
:105910000B48AC2300F019FC06490C4800F015FCBC
:105920000548AC2100F038FB86F31188BFF36F8F78
:1059300070BD00BFA4090020516C0000A36C0000E2
:105940003E6B0000B86C0000776C00008E6C0000AD
:105950002DE9F74F0446FEF741FD4FF02003EFF32A
:10596000118783F31288BFF36F8F5548FFF7C0FD8F
:1059700068B9544A54495548812300F0E6FB504920
:10598000534800F0E2FB4F48812100F005FB514DE8
:10599000514E4B48DFF84CA1FFF7C8FDB3462C60D1
:1059A000D6E90023D5F800C0DAF80040CDE900239D
:1059B0006246D3175445E04699460CD05CB1D4E911
:1059C00004128C4579EB02032EDAB1EB0C0062EB8A
:1059D0000901C4E90401009A019918EB02024B463F
:1059E00043EB01010024CBE900212C60FFF7B0FD5F
:1059F0002146FDF74BFB3248FFF788FD68B9314A75
:105A000036493248AC2300F0A0FB2D49344800F061
:105A10009CFB2C48AC2100F0BFFA87F31188BFF340
:105A20006F8F03B0BDE8F08FDDE90089ACEB0100BA
:105A300018EB01084FF000024FF0000349EBE17949
:105A40002860C4E904232046C6E90089FFF7ACFDBD
:105A50001B48FFF75BFD68B91A4A20491B48AC2375
:105A600000F073FB16491E4800F06FFB1548AC218F
:105A700000F092FA87F31188BFF36F8FA368204676
:105A800098474FF02003EFF3118783F31288BFF399
:105A90006F8F0B48FFF72CFD68B90A4A0A490B487B
:105AA000812300F052FB0649094800F04EFB0548EF
:105AB000812100F071FA0248FFF738FD70E700BF5E
:105AC000A4090020516C0000A36C00003E6B000094
:105AD000B86C0000A009002048020020776C00008C
